:020000040800F2
:10000000000002200132000851320008513200087D
:10001000513200085132000851320008000000003F
:100020000000000000000000000000005132000845
:100030005132000800000000513200080F2900086A
:100040005132000851320008513200085132000884
:100050005132000851320008092A00080F2A00080E
:10006000152A00081B2A0008212A0008513200081E
:100070005132000851320008513200085132000854
:100080005132000851320008513200085132000844
:10009000513200085132000851320008272A000866
:1000A000D51B0008ED1A0008E91B0008111B000809
:1000B000251B0008391B00084D1B000851320008A1
:1000C0005132000851320008513200085132000804
:1000D00051320008712E0008892E0008A52E000854
:1000E0003D2A000851320008D5420008FD1B0008D7
:1000F0009D1B0008111C0008C11B0008513200089C
:100100005132000851320008611B000851320008CA
:10011000C12E0008D92E0008751B0008891B000895
:1001200051320008513200085132000851320008A3
:1001300051320008000000000000000051320008A9
:10014000513200085132000851320008C9420008FB
:10015000513200085132000851320008F12E0008D7
:100160005132000851320008513200085132000863
:100170005132000851320008000000000000000069
:08018000513200085132000861
:10018800034613F8012B002AFBD1181A01387047CF
:1001980053B94AB9002908BF00281CBF4FF0FF31E6
:1001A8004FF0FF3000F00CB8ADF1080C6DE904CE4B
:1001B80004F0BCFEDDF804E0DDE9022304B070477A
:1001C800704700BF10B5054C237833B9044B13B101
:1001D8000448AFF300800123237010BDE401002020
:1001E80000000000F851000808B5034B1BB1034993
:1001F8000348AFF3008008BD00000000E8010020BC
:10020800F851000802484FF4E13102F0D3BF00BFB3
:100218009403002008B504F098F90A22014604481E
:1002280002F00BFFBDE80840642004F090B900BF5D
:10023800940300207047000038B50E4B1A784FF42D
:100248007A73B3FBF2F30C4A05461068B0FBF3F07F
:1002580000F0BAF8044658B90F2D09D802462946C5
:100268004FF0FF3000F05EF8044B20461D6038BDAB
:100278000120FCE7000000201000002004000020FE
:1002880008B50B4B1A6842F400721A601A6842F4F7
:1002980080621A601A6842F480721A60032000F0C3
:1002A8002FF80020FFF7C8FFFFF7C4FF002008BDA4
:1002B800003C0240034A044B11681B780B4413604E
:1002C800704700BF0002002000000020014B1868A2
:1002D800704700BF0002002038B50446FFF7F6FF5C
:1002E800631C1CBF054B1B78054618BFE418FFF7B5
:1002F800EDFF431BA342FAD338BD00BF0000002026
:100308000749CA6822F4E0620302120403F4E063B6
:10031800120C134343F0BF6343F40033CB607047C0
:1003280000ED00E0164B30B5DC68C4F30224C4F1DC
:100338000703251D042B28BF0423062D4FF0FF3586
:100348008CBF033C002405FA03F321EA0303A5400C
:1003580022EA0502A340002843EA0203ACBF00F1E9
:100368006040084A4FEA0313B8BF00F00F00DBB241
:10037800AABF00F56140135480F8003330BD00BFB8
:1003880000ED00E014ED00E0002807DB044A410915
:10039800012300F01F00834042F82130704700BF5E
:1003A80000E100E000280CDB4309064900F01F00CB
:1003B80020330122824041F82320BFF34F8FBFF33F
:1003C8006F8F704700E100E00138B0F1807F0BD2F9
:1003D8004FF0E023054A5861F02182F823100020ED
:1003E800072298611A6170470120704700ED00E00C
:1003F800002808DB4309044900F01F00012260338C
:10040800824041F82320704700E100E0704708B5BA
:10041800FFF7FCFF08BD704710B5044650B143799B
:1004280003F0FF0213B90271FFF7F5FF01236371AF
:10043800002010BD0120FCE770B50446866DFFF76B
:1004480045FF94F83530022B054606D080236365B6
:100458000120002384F8343070BD23681A6822F024
:1004680016021A605A6922F080025A61226C0AB98F
:10047800A26C1AB11A6822F008021A601A6822F0EF
:1004880001021A602368186810F0010007D1E26DB4
:100498003F239340B360012384F83530D9E7FFF751
:1004A80015FF401B0528EDD920230320636584F838
:1004B8003500CEE790F83530022B03D08023436512
:1004C800012070470268052380F83530136823F04F
:1004D8000103136000207047044A5169014208B5BE
:1004E80002D0506102F076FA08BD00BF003C01401E
:1004F800F0B504468BB060B390F8BD34056803F0DE
:10050800FF021BB980F8BC2403F0D6FD032384F84E
:10051800BD34EB6B254613F4807355F8100B08BFF8
:10052800236101F091FC0FCD6E460FC60FCD0FC6AB
:1005380095E8030086E803002546271D97E80E0086
:1005480055F8100B01F0CAFB064630B1022384F8B7
:10055800BD34012528460BB0F0BD0146206801F0E6
:1005680079FC3146D4F804C024264FF0010E084621
:10057800CAB2944501F1010121D8002124260A4676
:10058800C8B2844501F1010127D80FCD6E460FC6C8
:100598000FCD0FC695E8030086E8030097E80E0024
:1005A800206801F0D9FC05460028CFD1012384F842
:1005B8003800206884F8BD3402F094F8CAE706FBD6
:1005C8000243C3E9120083F83DE083F83C20A3F816
:1005D800442083F840005865CAE706FB0043C3E996
:1005E800A22283F87D2283F87C0283F88022C3F854
:1005F8009422C5E710B50446006894F8BC34012B72
:1006080015D0012384F8BC34A36A012B06D1A36951
:10061800012B1EBF836B43F48033836301F00EFC10
:10062800206802F051F8002084F8BC0410BD0220B4
:10063800FCE710B590F8BC24012A04460BD001222F
:1006480080F8BC2480F83810006802F02DF80020EB
:1006580084F8BC0410BD0220FCE770B501F00F0659
:1006680006EBC60411F0800F05464FEA84044FF0EC
:1006780024001FD000FB065004F13C01012429444A
:1006880080F83D40CA604A780E700B7102B10E8145
:10069800022B04BF00234B7195F8BC34012B12D0F8
:1006A8000123286885F8BC3401F01FFD002085F877
:1006B800BC0470BD00FB065004F51F7100242944DA
:1006C80080F87D42DEE70220F3E710B5044601F02A
:1006D8000F0000EBC00311F0800F4FEA83034FF0C7
:1006E800240216D002FB004203F13C0101232144FD
:1006F80082F83D30087094F8BC34012B12D00123E5
:10070800206884F8BC3401F02FFD002084F8BC0474
:1007180010BD02FB004203F51F710023214482F83B
:100728007D32E7E70220F3E738B501F00F0524240E
:1007380004FB050104FB050401F51F71C4F894329C
:100748000023C4F88C22C4F89C3284F87D3284F8E3
:100758007C5203690068012B08BFC4F89022DAB202
:100768001DB901F057FD002038BD01F025FEFAE75C
:1007780001F00F01242303FB0100D0F89C0270470D
:1007880038B501F00F05242404FB050104FB05041A
:100798003C3163650023E3650123E26484F83D305E
:1007A80084F83C5003690068012B08BF2265DAB25F
:1007B8001DB901F02FFD002038BD01F0FDFDFAE75D
:1007C80038B5436801F00F059D4204462CD811F056
:1007D800800F4FF024001ED000FB054100FB0540B0
:1007E80001233C3180F83D3001238B700D7094F863
:1007F800BC249A421AD0206884F8BC3401F000FF67
:100808002DB9217C206804F2C44201F0BBFF00200E
:1008180084F8BC0438BD00FB01431A4603F51F7178
:10082800002382F87D32DFE70120F3E70220F1E7B9
:1008380038B5436801F00F029A4204462AD802EB01
:10084800C20311F0800F4FEA83034FF0240018D041
:1008580000FB024003F13C010123214480F83D30B4
:1008680000258D700A7094F8BC34012B14D0012334
:10087800206884F8BC3401F0EEFE84F8BC542846A5
:1008880038BD00FB024003F51F710023214480F8A6
:100898007D32E5E70120F3E70220F1E701F00F03DD
:1008A80003EBC3030A064FEA83034CBF03F13C0181
:1008B80003F51F710144006801F028BD2DE9F04FD0
:1008C800066889B00446304601F048FF03900028C6
:1008D80040F05781206801F013FF002800F0518193
:1008E800D6F808382068C3F30D23C4F8FC3401F0A7
:1008F80007FF870748BF2268206842BF536903F093
:100908000203536101F0FCFEC00606F500652CD514
:100918002268936923F010039361D6F82080C8F306
:100928004343022B08F00F0740F02E8147F6F0737F
:1009380018EA030F14D0242303FB0747C8F30A1946
:10094800D7F88C124A46304601F03AFED7F88C3276
:100958004B44C7F88C32D7F89C324B44C7F89C32CA
:100968002268936943F010039361206801F0C8FE80
:10097800010300F11B81206801F0C2FE42030DD57E
:10098800206801F0C9FE2746049006F5106B4FF069
:10099800000A049B2068002B40F0CD81206801F0FC
:1009A800AFFE002813DA6B6823F001036B6094F83C
:1009B800F434012B40F06782002184F8F4142046B7
:1009C80000F0E3FA2268536903F00043536120689A
:1009D80001F096FE01050AD5AB68DA0702D5204674
:1009E80003F02CFC2268536903F400635361206808
:1009F80001F086FEC30433D56B68206823F0010339
:100A08006B60102101F056FA06F510634FF67F313E
:100A180062680398824200F23A82EB6943F001135C
:100A2800EB61236B002B00F04F82D5F8843043F044
:100A38000B03C5F884306B6C43F00B036B64D6F87A
:100A48000038217C206823F4FE63C6F8003804F2DD
:100A5800C44201F097FE2268536903F4805353613E
:100A6800206801F04DFE870416D5206801F07AFE53
:100A7800206801F02FFBE060276800F0FDFC227B76
:100A88000146384601F06AF9204603F0C6FB2268A1
:100A9800536903F400535361206801F031FE0007E5
:100AA80007D5204603F0B5FB2268536903F0080315
:100AB8005361206801F024FE010600F110822068CD
:100AC80001F01EFEC2020CD5A04606F512690127E8
:100AD8006368BB4200F21C822268536903F48013E6
:100AE8005361206801F00CFE83022DD5D4F804E090
:100AF800234606F5326001218E4520D993F8A4C219
:100B08000268BCF1010F40F01982002A80F21682B7
:100B1800D4F8FC7402F4803207F00107BA4240F0BE
:100B28000D8283F8A3C2B26942F08002B261726991
:100B3800170600F103826B6843F400736B60226848
:100B4800536903F400135361206801F0D9FD410093
:100B580007D5204603F0ACFB2268536903F08043B5
:100B68005361206801F0CCFD42070AD523685D680F
:100B78006B0702D5204603F09FFB226853682B437E
:100B8800536009B0BDE8F08F062B7FF4E9AE082268
:100B980004F2C441304601F013FD242303FB074748
:100BA800C8F30A18D7F89C324344D7E6206801F006
:100BB800ABFD06F530680490A2460027049B206828
:100BC800002B3FF4D8AE049BDB0762D55FFA87FBA6
:100BD800594601F0A9FD10F0010F81461BD020688D
:100BE80021690123C8F8083000F5306303EB471387
:100BF8000129D0F840C09A6878D1110707D5B049C3
:100C08008C4508D9100406D54FF4004202E091063D
:100C180048D520229A6019F0080F0FD00823C8F889
:100C280008302368A649186C03F5306303EB4713B3
:100C380088429A686ED8204603F0D4FA19F0100F4B
:100C48001CBF1023C8F8083019F0020F14D07369BC
:100C58001A0642BF6B6843F480636B609AF87F3270
:100C6800012B06D100238AF87F325946204603F02B
:100C780017FB0223C8F8083019F0200F1CBF2023E7
:100C8800C8F8083019F4005F1CBF4FF40053C8F8C7
:100C98000830049B5B080137049308F120080AF127
:100CA800240A8BE712F0280FB5D185498C4501D964
:100CB8001204A9D41A69DAF89832C2F312029B1AFC
:100CC800CAF89C326FB9D4F894222AB904F2C44203
:100CD800012101F057FD04E0D4F88C221A44C4F82D
:100CE8008C225946204603F083FA94E775498C45CF
:100CF80006D1110488D49006F3D520229A60F0E733
:100D0800002FEED1D4F89432002BEAD104F2C44279
:100D18003946DEE7110444BF4FF400429A6020468A
:100D280003F060FA2169012988D1206804F2C442DD
:100D380001F028FD82E7049BDB0740F19B805FFA06
:100D48008AF31946059301F0F8FC10F0010F80466C
:100D58001FD06B6B01210AF00F0201FA02F223EA9D
:100D680002036B63CBF80810216901290DD1D7E97B
:100D780012231344FB64BAF1000F06D1636D23B943
:100D8800206804F2C44201F0FDFC0599204603F0F6
:100D980038FA18F0080F1CBF0823CBF8083018F0F1
:100DA800100F1CBF1023CBF8083018F0400F1CBFE1
:100DB8004023CBF8083018F0020F11D051463046C6
:100DC80001F078F897F83F30012B06D100230599F8
:100DD80087F83F30204603F067FA0223CBF8083043
:100DE8002368069318F0800F44D0FA6D7B6D9A4201
:100DF80040D8A3EB0208BB6C984528BF9846069BD1
:100E080003F5106308F1030803EB4A134FEA980847
:100E18000793079BFA6D99697B6D89B2414527D382
:100E280093420BD8069B0AF00F00D3F8342801210F
:100E3800814022EA0102C3F834281BE0A3EB02092F
:100E4800BB6C059A0698994528BF9946237C009360
:100E5800F96C1FFA89F301F09BFAFB6C4B44FB64B5
:100E6800FB6D09F103084B444FEA9808FB65D0E78E
:100E78009342D7D9049B5B080AF1010A04932437EB
:100E88000BF1200B85E5204603F0F0F99AE599600F
:100E98001A6822F400121A60C3F80812D3F8002264
:100EA80022F40012C3F80022D3F8002242F00062B4
:100EB800C3F80022039A013203922033A8E500BF49
:100EC8000A30544F0A31544F6B6943F4005343F0CE
:100ED8002B036B612B6943F00B032B61AFE5B369FF
:100EE80023F08003B361012704F27F284FF024091F
:100EF8006368BB427FF6E3AD09FB07F318F80330DC
:100F0800012B03D1F9B22046FFF7C8FC0137EFE700
:100F180098F86430D9F80020012B09D1002A07DAA3
:100F280067F07F0188F86330C9B22046FFF7B6FC46
:100F3800013708F1240809F12009C9E501312433F2
:100F48002030D9E5036870B5586A120419B902430C
:100F58009A62002070BD9C6A4E1E00EB144000246B
:100F6800B44205D33F3103EB810302435A60F0E7F3
:100F780004F1400503EB850501346D6800EB15406D
:100F8800EEE7036800205962704770472DE9F34186
:100F9800044640B30368DE0710D423689D075BD47A
:100FA8002368190700F19D8023685A0700F1BD8066
:100FB800A369002B40F0248100202CE08D4B9A6817
:100FC80002F00C02042A07D09A6802F00C02082AE0
:100FD8000BD15B68590208D5864B1B689A03DCD590
:100FE8006368002BD9D1012015E06368814DB3F502
:100FF800803F13D12B6843F480332B60FFF766F9E9
:101008007C4E054633689B03C7D4FFF75FF9401B46
:101018006428F7D9032002B0BDE8F081B3F5A02F0A
:1010280004D12B6843F480232B60E3E72A6822F479
:1010380080322A602A6822F480222A60002BDDD1BF
:10104800FFF744F906462B689F03A6D5FFF73EF93C
:10105800801B6428F7D9DDE7664B9A6812F00C0FFD
:1010680007D09A6802F00C02082A11D15B685D0269
:101078000ED4604A1368990702D5E368012BB2D1F0
:101088001368216923F0F80343EAC103136087E773
:10109800E268594BB2B101221A60FFF717F9554DB2
:1010A80006462B689B0707D52B68226923F0F803AF
:1010B80043EAC2032B6073E7FFF708F9801B022895
:1010C800EFD9A7E71A60FFF701F94A4E05463368DA
:1010D8009F077FF565AFFFF7F9F8401B0228F6D99F
:1010E80098E76269444B82B10122C3F8802EFFF76A
:1010F800EDF8404E0546736F9B073FF555AFFFF778
:10110800E5F8401B0228F6D984E7C3F8802EFFF7DC
:10111800DDF8384E0546736F9F077FF545AFFFF73B
:10112800D5F8401B0228F6D974E7324B1A6C12F036
:10113800805228D101921A6C42F080521A641B6CBA
:1011480003F080530193019B01272C4D2B68D80590
:101158001BD5A368274D012B27D12B6F43F0010323
:101168002B67FFF7B3F8234E054641F28838336FF3
:101178009A0739D5002F3FF41BAF1E4A136C23F092
:101188008053136414E70027DFE72B6843F4807368
:101198002B60FFF79BF806462B68D905D9D4FFF7D3
:1011A80095F8801B0228F7D934E7052B04D12B6F5B
:1011B80043F004032B67D0E72A6F22F001022A6765
:1011C8002A6F22F004022A67002BCAD1FFF77EF8A3
:1011D80041F2883806462B6F9B07CBD5FFF776F888
:1011E800801B4045F7D915E7FFF770F8401B4045CD
:1011F800BDD90FE7003802400000474200700040A8
:10120800374DAA6802F00C02082A3ED0022B354B53
:101218004FF000021A662BD1FFF758F806462B68E4
:1012280099011FD4D4E907321343626A43EA82134F
:10123800E26A43EA0263A26A5208013A43EA0243B5
:101248006B60284B264D01221A66FFF73FF80446CB
:101258002B689A013FF5B0AEFFF738F8001B02285B
:10126800F6D9D7E6FFF732F8801B0228D7D9D1E69E
:10127800FFF72CF804462B689B017FF59DAEFFF71E
:1012880025F8001B0228F6D9C4E6012B3FF4ABAEC3
:101298006B68E26903F4800191427FF4A4AE216A8D
:1012A80003F03F028A427FF49EAE616A47F6C0723D
:1012B8001A40B2EB811F7FF496AEA26A520803F47B
:1012C8004031013AB1EB024F7FF48DAEE26A03F090
:1012D8007063B3EB026F14BF012000209BE600BFD0
:1012E8000038024000004742134908B58B6803F0F4
:1012F8000C03042B1CD0082B1CD14A684B68496886
:1013080013F4800314BF0D480D48C1F3881118BFAA
:10131800002302F03F02A1FB0001FEF739FF064B54
:101328005B68C3F3014301335B00B0FBF3F008BD16
:101338000248FCE70248FAE70038024000127A0047
:101348000024F4002DE9F0410D46044610B90120AF
:10135800BDE8F081434B1A6802F007028A4228D39D
:1013680021688F072DD4C80740D43E4B1A6802F075
:101378000702AA4265D8226851076BD4130707D51C
:10138800394A2169936823F4604343EAC1039360AF
:10139800FFF7AAFF344B354A9B68C3F30313D35CAA
:1013A800D840334B1860334B1868FEF745FF0020D0
:1013B800CEE7CAB21A701B6803F007038B42C6D186
:1013C800CEE7294B11F0040F1EBF9A6842F4E05291
:1013D8009A600E0742BF9A6842F460429A609A681F
:1013E800A06822F0F00202439A60BCE762681E4BD4
:1013F800012A1CD11B6813F4003FA8D01A4EB36809
:1014080023F003031343B360FEF760FF41F288380B
:101418000746B368626803F00C03B3EB820FA4D0ED
:10142800FEF754FFC01B4045F3D9032090E7911EF7
:1014380001291B6802D813F0007FDEE713F0020FC2
:10144800DBE7EAB21A701B6803F00703AB427FF4CC
:101458007EAF90E70449E0688B6823F4E0530343C8
:101468008B608BE7003C0240003802405052000875
:101478001000002004000020014B1868704700BFCE
:10148800100000207047704703681A69910710B56B
:1014980004460ED5DA6892070BD56FF002021A617E
:1014A800012202779B699B0777D000F0EFFB0023AE
:1014B800237723681A69500710D5DA6851070DD5C4
:1014C8006FF004021A61022222779B6913F4407FAD
:1014D800204668D000F0DAFB0023237723681A69D6
:1014E80012070FD5DA6810070CD56FF008021A61D9
:1014F80004222277DB69990720465AD000F0C6FB00
:101508000023237723681A69D20610D5DA68D00633
:101518000DD56FF010021A6108222277DB6913F4E7
:10152800407F20464BD000F0B1FB0023237723688F
:101538001A69D10708D5DA68D20705D56FF0010214
:101548001A61204600F07FFB23681A69100608D547
:10155800DA68110605D56FF080021A61204600F09E
:1015680036F823681A69520608D5DA68500605D590
:101578006FF040021A612046FFF785FF23681A6959
:10158800910622D5DA6892061FD56FF02002204610
:101598001A61BDE8104000F019B800F075FB20464C
:1015A800FFF770FF83E700F06FFB2046FFF76AFF45
:1015B80092E700F069FB2046FFF764FFA0E700F020
:1015C80063FB2046FFF75EFFAFE710BD704770472B
:1015D800026802F10C0353E8003F23F490730C32C5
:1015E80042E8003102680029F2D102F1140353E8FD
:1015F800003F23F0010302F1140C4CE800310029EC
:10160800F3D1036B012B0BD102F10C0353E8003F1C
:1016180023F0100302F10C0C4CE800310029F3D13F
:10162800202380F83E3000230363704790F83D3054
:10163800202B18D1A9B1A2B190F83C30012B12D0BF
:10164800C28401628284016800232122036480F835
:101658003C3080F83D20CA6842F08002CA601846D3
:101668007047012070470220704708B5806B00233F
:10167800C385C38401F0BAFB08BD704790F83E30BB
:10168800222B07B541D181680268836AB1F5805F72
:101698003ED1016900293ED15268C2F3080223F8FD
:1016A800022B8362C38D013B9BB2C385002B2CD1D7
:1016B8000268D16821F02001D160D16821F48071DD
:1016C800D160516921F001015161202280F83E204A
:1016D800026B012A026828D1036302F10C0353E864
:1016E800003F23F0100302F10C0C4CE800310029F4
:1016F800F3D11368DB0605D501911368019353688C
:101708000193019B818DFFF7B8FF03B05DF804FBDF
:1017180039B9016929B95268D2B21A70836A01339A
:10172800BFE7526802F07F02F7E701F059FBECE7E8
:1017380003681A6873B51607D9685D6904460AD143
:10174800960640F18B808D0640F1888002B0BDE896
:101758007040FFF793BF15F001054BD012F0010F51
:1017680002F0040363D11BB1236C43F0020323642A
:10177800930749D5236C43F00403236412F0080F40
:1017880003D0236C43F008032364236C002B5FD041
:10179800920604D58B0602D52046FFF76FFF266810
:1017A8007369226C03F0400302F0080253EA020551
:1017B80020464FD0FFF70CFF73695E0645D52268B7
:1017C80002F1140353E8003F23F04003143242E8C7
:1017D80000310029F3D1A06B002836D0884B03656F
:1017E800FEF768FE002833D0A06B036D02B0BDE899
:1017F8007040184711F4907F30D012F0010F02F0BA
:10180800040307D190070DD41007BED501F02003BB
:101818002B43B5E7CE050FD4002BF3D19607F3D5AC
:10182800002DA7D11507B0D511F0200FA8E7C805DE
:1018380002D4002B98D1F1E7236C560743F001033B
:101848002364EBD5002DDDD08EE7204601F0CEFADB
:1018580002B070BD01F0CAFA2564F9E7206B0128CF
:1018680040F09180D50640F18E80C80640F18B800B
:10187800002201921A6801925A680192019A5A69E3
:1018880052064CD5A16B0A68526892B2002ADFD082
:10189800A08D9042DCD9E285CA69B2F5807F36D046
:1018A80003F10C0252E8002F22F4807203F10C00BD
:1018B80040E800210029F3D103F1140252E8002F77
:1018C80022F0010203F1140040E800210029F3D1BD
:1018D80003F1140252E8002F22F0400203F1140031
:1018E80040E800210029F3D1202284F83E2021631A
:1018F80003F10C0252E8002F22F0100203F10C0051
:1019080040E800210029F3D1A06BFEF795FDE38D97
:10191800A18DC91A89B22046FFF7AFFE98E7E28D7C
:10192800E08DA18D80B292B2002891D0891A89B237
:1019380000298DD003F10C0252E8002F22F4907296
:1019480003F10C0545E800200028F3D103F1140247
:1019580052E8002F22F0010203F1140545E80020A7
:101968000028F3D1202284F83E20206303F10C02E2
:1019780052E8002F22F0100203F10C0545E8002080
:101988000028F3D1C7E7160628D50D0626D594F802
:101998003D20212A7FF45CAFA168226AB1F5805FFF
:1019A80017D12169A9B932F8021BC1F3080159609E
:1019B8002262E28C013A92B2E284002A7FF448AFB4
:1019C800DA6822F08002DA60DA6842F04002DA600F
:1019D8003EE7511C216212785A60EAE750067FF50B
:1019E80037AF4A067FF534AFDA6822F04002DA6092
:1019F800202384F83D30204601F0F5F928E700BFA0
:101A08007316000890F83C30012B11D0026824238B
:101A180080F83D30D36823F00C0343F00803D3600B
:101A2800202380F83D30002380F83C30184670476A
:101A38000220704790F83C30012B11D00268242313
:101A480080F83D30D36823F00C0343F00403D360DF
:101A5800202380F83D30002380F83C30184670473A
:101A68000220704790F83D2090F83E0010437047E0
:101A7800C285002382852222036480F83E20026901
:101A880080F83C30816203681AB1DA6842F48072E7
:101A9800DA605A6942F001025A61DA6842F02002BB
:101AA800DA600020704770B490F83E60202E0DD1A7
:101AB80049B142B190F83C40012C07D0002404639E
:101AC80070BCFFF7D5BF012070BC70470220FBE750
:101AD800836810B5044613B103220146984720468F
:101AE80010BD000010B5074C206810B10430FFF796
:101AF800CBFC606A20B1BDE810400430FFF7C4BCDD
:101B080010BD00BF04020020034B186810B1043058
:101B1800FFF7BABC704700BF04020020034B5868A7
:101B280010B10430FFF7B0BC704700BF04020020BA
:101B3800034B986810B10430FFF7A6BC704700BF8C
:101B480004020020034BD86810B10430FFF79CBC96
:101B5800704700BF04020020034B186910B104301D
:101B6800FFF792BC704700BF04020020034B58697E
:101B780010B10430FFF788BC704700BF0402002092
:101B8800034B986910B10430FFF77EBC704700BF63
:101B98000402002010B5074CE06910B10430FFF7CB
:101BA80073FC206B20B1BDE810400430FFF76CBC1B
:101BB80010BD00BF04020020034BD86910B10430E7
:101BC800FFF762BC704700BF04020020034B186A8D
:101BD80010B10430FFF758BC704700BF0402002062
:101BE800034B986A10B10430FFF74EBC704700BF32
:101BF80004020020034BD86A10B10430FFF744BC3C
:101C0800704700BF04020020034B586B10B104302A
:101C1800FFF73ABC704700BF04020020826810B585
:101C28000AB903F0E1FABDE81040C368184708B5DF
:101C380000B9FEE701F072F80068836E13B16030F6
:101C4800FFF7ECFF08BDFFF7F2BF10B500B9FEE7DC
:101C5800037F013B072B10D8DFE803F004140F10B3
:101C68000F0F0F12012401F059F80068063400EB39
:101C7800041083680BB1FFF7D1FF10BD0324F2E70E
:101C88000424F0E70224EEE7FFF7DFBFFFF7DDBF2C
:101C980082B00023104901930246019B013301934E
:101CA800019B8B4215D81369002BF6DA00230193A8
:101CB8001369094943F001031361019B013301933F
:101CC800019B8B4205D8106910F00100F5D102B0D4
:101CD80070470320FBE700BF400D030084B038B510
:101CE80005AD85E80E000A9B012B044625D1836BC0
:101CF80023F480338363C36823F4840323F040030D
:101D0800C360C36823F44013C360119B012B02BF57
:101D1800C36843F48013C360FFF7BAFF089B012B25
:101D280007D1A36843F00603A360A36843F0200328
:101D3800A360BDE8384004B07047C36843F040036F
:101D4800C360FFF7A5FF0E9B23B9A36B43F4803351
:101D5800A363E3E7A36B23F48033F9E7022A4AD1AC
:101D6800274B284A0B44934239D9274B274A0B441F
:101D7800934236D9264AA1F57403A3F5105393422A
:101D880031D9244AA1F18373A3F5E74393422CD3B5
:101D9800214B224A0B44934229D9214B214A0B4417
:101DA800934226D3204B214A0B44934223D3204A03
:101DB800A1F1B773A3F5585393421ED31D4B1E4A86
:101DC8000B4493422CBF06230723C26822F47052A7
:101DD800C260C26842EA8323C360002070470F23B1
:101DE800F3E70E23F1E70D23EFE70C23EDE70B23D1
:101DF800EBE70A23E9E70923E7E70823E5E700BF5C
:101E0800405327FFFF340C00401E1BFF3F420F00CA
:101E18007F4F120020D6130060B6E5FE5FE3160080
:101E280000D3CEFE40771B00C05BB3FEC0912100FB
:101E380020753800E05459FEE09C4100836843F067
:101E48000103836000207047836823F001038360E7
:101E58000020704738B5C368012923F0C043054600
:101E68000C46C36014D1C36843F00053C360002418
:101E78000120FEF731FA6B69D90704F1010402D495
:101E8800322CF5D13224A4F132035842584138BDDE
:101E980071B9C36843F08043C3600120FEF71CFAA0
:101EA8006B69DA0704F10104EDD5322CF5D1E9E7C5
:101EB8000120ECE782B00246002310480193019B01
:101EC80001330193019B834215D81369002BF6DA7D
:101ED800890141F020010023019311610749019B09
:101EE80001330193019B8B4205D8106910F0200043
:101EF800F5D102B070470320FBE700BF400D030097
:101F080082B000230F4901930246019B01330193DC
:101F1800019B8B4213D81369002BF6DA0023019337
:101F2800084910231361019B01330193019B8B42E4
:101F380005D8106910F01000F5D102B070470320E1
:101F4800FBE700BF400D0300D0F800381943C0F884
:101F5800001800207047000084B02DE9F8430446BB
:101F680009A880E80E00139E00230F46194603F1C6
:101F7800400204EB820201330F2B5160F7D104F5C4
:101F88000068002E73D1D8F8043043F00203C8F873
:101F98000430A36B43F40013A363A36B23F400235F
:101FA800A363A36B23F48023A3630023C4F8003E38
:101FB800D4F80038C4F800380E9B012B61D10B9976
:101FC80000295CD12046FFF7BFFF10212046FFF70C
:101FD80071FF05462046FFF793FF2843C0B2002350
:101FE8000038C8F8103018BF0120C8F8143004F5BC
:101FF8001062C8F81C3019464FF090454FF0006C3D
:102008004FF67F3EBB423ED1002204F530631146B5
:102018004FF090454FF0006C4FF67F3EBA4244D1E6
:10202800D8F8103023F48073C8F810300023A36167
:102038006FF0804363610C9B1BB9A36943F01003E5
:10204800A361A269224B1343A3610F9B1BB1A36930
:1020580043F00803A361012E01BFA36943F0804345
:1020680043F00403A361BDE8F84304B07047A36BD1
:1020780023F40013A363A36B43F4002394E71946E6
:10208800A0E703219EE7D2F80090B9F1000F0ADA21
:102098003BB9C2F800C011610133C2F808E0203230
:1020A800B0E71560F7E71160F5E7D3F80090B9F1EC
:1020B800000F0ADA3AB9C3F800C019610132C3F84F
:1020C80008E02033AAE71D60F7E71960F5E700BFCD
:1020D80000383C80D0F8083813F0060004D013F01C
:1020E800020F14BF02200F20704730B50C78012270
:1020F80004F00F05AA404D78012D00F5006300EBB0
:10210800441019D1DD692A43DA61D0F800391A047C
:1021180010D4CA68D0F80059C2F30A030A792B43CD
:1021280043EA824343EA845343F0805343F4004331
:10213800C0F80039002030BDDC6944EA0242DA61A7
:10214800D0F8003B1B04F5D4CB68D0F8002BC3F3C0
:102158000A0313430A7943EA824343F0805343F462
:102168000043C0F8003BE5E710B50A784978012933
:1021780000EB421300F5006002F00F0222D1D3F801
:10218800001900290BDAD3F8001941F00061C3F8EF
:102198000019D3F8001941F08041C3F80019C46B45
:1021A800012101FA02F224EA0204C463C16921EAA6
:1021B8000202C261D3F80019144A0A40C3F8002980
:1021C800002010BDD3F8001B00290BDAD3F8001B40
:1021D80041F00061C3F8001BD3F8001B41F08041B7
:1021E800C3F8001BC46B4FF4803101FA02F224EAF1
:1021F8000204C463C16921EA0202C261D3F8001B68
:10220800034A0A40C3F8002BDAE700BF007833EC32
:102218000078F3EF4B78DFF8F0C0F0B50E788D69F1
:10222800384F012B00EB461446D104F51063BDB9B5
:102238001D693D401D611D6945F400251D611D692D
:1022480005EA0C05012A1D6123D14A6902B15A61C8
:10225800D4F8003943F00443C4F800390020F0BD35
:10226800D3F810E00EEA0C0CC3F810C0D3F810C075
:102278000CEA07071F61CF68AF421D6938BF8F613D
:1022880045F400251D618D691F69C5F312053D439D
:10229800D8E7D4F8003943F00443C4F800398B690F
:1022A800002BDBD0D0F8342806F00F060123B3400A
:1022B8001343C0F83438D1E7D4F8100B00EA0C0007
:1022C800C4F8100BD4F8100B384004F530631861CB
:1022D800C86805B188611D69C86145F400251D619C
:1022E8001D69C0F312002843012A186102D10A6946
:1022F80002B15A61D4F8003B43F00443C4F8003BF0
:10230800ACE700BFFFFF07E00000F8FF82B0002342
:102318004A7801930B78012A4FEA43131ED100F53E
:102328001060C118C258002A02DB002002B07047B2
:10233800C25842F00062C250C25842F08042C250B5
:1023480042F21072019B01330193019B934201D920
:102358000120EBE70B68002BF4DBE6E700F53060C3
:10236800C118C258002AE0DAC25842F00062C250CE
:10237800C25842F08042C25042F21072019B0133AF
:102388000193019B9342E3D80B68002BF6DBCCE763
:1023980010B59DF8084044B9033301329B0800EB9F
:1023A800023001EB83038B4201D1002010BD51F8AC
:1023B800042B0260F7E700002DE9F74391F801C00C
:1023C8008B690F79DFF8ECE1DFF8EC8116460A78C3
:1023D800BCF1010F00EB421440F0A28004F5106537
:1023E800CBB9D5F810C00CEA0E0CC5F810C0D5F85A
:1023F80010C04CF4002CC5F810C0D5F810C0012E40
:102408000CEA080CC5F810C054D14B6903B16B61D4
:10241800012F2DD140E0D5F8109009EA0808C5F839
:102428001080D5F8108008EA0E0EC5F810E0D1F833
:102438000CE0D5F810900EEB030808F1FF38B8FB54
:10244800FEF8DFF878E10EEAC84E4EEA090EC5F844
:1024580010E0D5F81080C3F3120E4EEA080E012FD3
:10246800C5F810E00BD0012E30D14B6903B16B6178
:10247800D4F8003943F00443C4F8003922E02F6946
:1024880027F0C0472F612F69012E47F000572F61B1
:102498002DD14B6903B16B61D0F8083813F4807FF4
:1024A800D4F800390CBF43F0005343F08053C4F80C
:1024B8000039DDE7D4F80059012F45F00445C4F888
:1024C80000591AD0002003B0BDE8F083D4F80039D1
:1024D80043F00443C4F80039D0F8343802F00F024E
:1024E8000CFA02FC4CEA0303C0F83438EAE7D4F8E3
:1024F800005945F00445C4F80059D0F8085815F4B7
:10250800807FD4F800590CBF45F0005545F0805540
:10251800C4F80059009609699BB2FFF739FFD1E763
:10252800D4F8105B05EA0805C4F8105BD4F8105B12
:1025380005EA0E0504F530621561CD681BBB136909
:10254800C5F312051D431561136943F40023136194
:10255800012E02D10B6903B15361012F0CD1D0F8C0
:10256800083813F4807FD4F8003B0CBF43F00053C5
:1025780043F08053C4F8003BD4F8003B43F00443D5
:10258800C4F8003B9EE72B44DFF830C0D2F810E0D7
:10259800013BB3FBF5F39BB25D430CEAC34343EA4B
:1025A8000E03CD6113611369C5F312051D4315614F
:1025B800CEE700BFFFFF07E00000F8FF0000F81FAC
:1025C800034670B50020940803F5805502F0030215
:1025D800A04210D301EB840062B103F580531C685C
:1025E8000023D90024FA01F1C154013399B28A4277
:1025F800F7D1104470BD2E6841F820600130E7E73C
:102608004A780B78012A00EB431012D1D0F8002940
:10261800002A06DB2BB1D0F8003923F08043C0F83C
:102628000039D0F8003943F40013C0F8003900200D
:102638007047D0F8002B002A06DB2BB1D0F8003BFE
:1026480023F08043C0F8003BD0F8003B43F400136C
:10265800C0F8003BEBE70B784A7800EB43100B79A6
:10266800012AA3F10203DBB20FD1D0F80029012B14
:1026780022F40012C0F8002905D8D0F8003943F038
:102688008053C0F8003900207047D0F8002B22F49E
:102698000012012BC0F8002B9EBFD0F8003B43F07E
:1026A8008053C0F8003BEEE7D0F8003823F4FE630F
:1026B800C0F80038D0F80038090101F4FE61194368
:1026C800C0F8001800207047D0F8003E23F003033C
:1026D800C0F8003ED0F8043823F00203C0F80438EC
:1026E80000207047D0F8003E23F00303C0F8003EF6
:1026F800D0F8043843F00203C0F8043800207047CB
:102708004269806910407047D0F8183800F50060B9
:10271800C0691840000C7047D0F8183800F5006000
:10272800C069184080B2704700EB411100F50060A5
:10273800D1F8082B406910407047D0F81028D0F81D
:10274800343800EB411001F00F01CB4000F5106068
:10275800DB018068DBB2134318407047406900F022
:1027680001007047D0F8003923F4FF6323F0070312
:10277800C0F80039D0F8043843F48073C0F804383E
:102788000020704730B5056C104CA54200F5306349
:1027980003D9D0F8004B002C16DB00241C611C69FF
:1027A80044F400241C611C6944F018041C611C6971
:1027B800012944F0C0441C6101BF5A61D0F8003BB4
:1027C80043F08023C0F8003B002030BD0A30544F4E
:1027D8008AB0002308287CD8DFE800F00513202DF4
:1027E8003A4754616E0001933B4B3C481A6B42F0E8
:1027F80001021A631B6B03F001030193019B0AB0EA
:1028080070470293344B36481A6B42F002021A633F
:102818001B6B03F002030293029BF0E703932E4B1A
:1028280030481A6B42F004021A631B6B03F004036E
:102838000393039BE3E70493274B2B481A6B42F05F
:1028480008021A631B6B03F008030493049BD6E782
:102858000593214B25481A6B42F010021A631B6B33
:1028680003F010030593059BC9E706931A4B20480C
:102878001A6B42F020021A631B6B03F020030693C5
:10288800069BBCE70793144B1A481A6B42F04002A8
:102898001A631B6B03F040030793079BAFE708938A
:1028A8000D4B15481A6B42F080021A631B6B03F03C
:1028B80080030893089BA2E70993074B0F481A6BFC
:1028C80042F480721A631B6B03F480730993099BAB
:1028D80095E7002093E700BF00380240000002405F
:1028E8000004024000080240000C024000100240B0
:1028F8000014024000180240001C02400020024060
:10290800FDF7E4BC704708B5FDF7D4FCFDF77FFD83
:10291800FFF7F8FF08BD704784B0114B0022019201
:10292800196C41F080511964196C01F080510191C2
:1029380001990292596C41F480415964596C01F42F
:1029480080410291029903921A6B42F480521A63F1
:102958001B6B03F480530393039B04B0704700BFC1
:10296800003802400C4BD3F8FC20D2015EBFD3F8EC
:10297800FC2042F08072C3F8FC20084B00225A6009
:102988001A6842F001021A6000BF00BF00BF586811
:10299800B0FA80F04009704700ED00E0001000E058
:1029A80008B5FFF7B9FFFFF7DDFFFDF769FCFFF793
:1029B800B2FF00F0B1FA0348FDF72EFDBDE808406C
:1029C80001F0BABD080000200023C0E90033C0E9C7
:1029D800023370470023012803F101020AD11422AF
:1029E800DBB25343054A181D1044816829B11A44C3
:1029F8001369184740081346EDE770473C0200206A
:102A08000120FDF769BD0220FDF766BD0420FDF732
:102A180063BD0820FDF760BD1020FDF75DBD38B52A
:102A280005242025A8B2FDF757FD013C4FEA4505CE
:102A3800F8D138BD38B506244FF48065A8B2FDF743
:102A48004BFD013C4FEA4505F8D138BD344A1046E4
:102A580008B5062300F8043BFFF7B6FF072302F189
:102A680018001375FFF7B0FF082302F12C0082F855
:102A78002830FFF7A9FF092302F1400082F83C3013
:102A8800FFF7A2FF0A2302F1540082F85030172101
:102A9800FFF79AFF02F1680082F86410FFF794FFCD
:102AA80002F17C0082F87810FFF78EFF02F19000A7
:102AB80082F88C10FFF788FF02F1A40082F8A010BA
:102AC800FFF782FF02F1B80082F8B4102821FFF75F
:102AD8007BFF02F1CC0082F8C810FFF775FF02F106
:102AE800E00082F8DC10FFF76FFF02F1F40082F8D3
:102AF800F010FFF769FF02F5847082F80411FFF700
:102B080063FF02F58E7082F81811FFF75DFFBDE8CC
:102B1800084002F5987082F82C11FFF755BF00BFE6
:102B28003C02002038B5054CA4F5A075143C201DC6
:102B3800FEF7CEFFAC42F9D138BD00BF7C030020C0
:102B480030B591FAA1F391FAA1F1B3FA83F3C4680D
:102B58005B000325B1FA81F105FA03F3490024EA81
:102B680003038A401A43C26030BD0000F8B5471C11
:102B780006460D4600D1FEE700F00F02414BC0F3B8
:102B8800031053F82240FFF723FE94FAA4F3B3FA94
:102B980083F3876803225B0002FA03F394FAA4F232
:102BA800B2FA82F227EA03075200032393403B4319
:102BB80005F007018360032903D8DFE801F05F030C
:102BC8002C61FEE7012394FAA4F2B2FA82F20668B5
:102BD8005200032707FA02F226EA020694FAA4F240
:102BE800B2FA82F25200934001393343012903605B
:102BF80005D843682A074CBF2343A3434360C5F362
:102C08000112012A02D0022A18BF00222146BDE87B
:102C1800F840FFF795BFC5F306227F2A01D10223AA
:102C2800D1E7360716D5230A93FAA3F6B6FA86F63D
:102C3800476A93FAA3F3B6004FF00F0CB3FA83F385
:102C48000CFA06F69B0027EA060602FA03F333435A
:102C58004362E4E794FAA4F3B3FA83F3066A9B00A9
:102C68000F2707FA03F326EA030694FAA4F3B3FA44
:102C780083F39B009A4032430262D0E70023A2E725
:102C88000323A0E7105200080B685A1C01D100204A
:102C98007047834201D1486870470C31F4E7431C00
:102CA80001D0FFF7F1BF002070474B6813B94FF010
:102CB800FF307047834201D1086870470C31F4E750
:102CC80008B1FFF7F2BF4FF0FF3070471049D1F855
:102CD800883043F47003C1F888300E4B1A6842F00C
:102CE80001021A6000229A601A6822F0847222F4A3
:102CF80080321A60084A5A601A6822F480221A60E0
:102D08004FF43F02DA604FF000638B60704700BFFA
:102D180000ED00E00038024010300024043870470D
:102D280008B5074B90F8612053F82200FEF79AFE89
:102D380000F02200A0F122035842584108BD00BF0C
:102D48007C03002008B5074B90F8612053F8220057
:102D5800FEF788FE00F02100A0F1210358425841F7
:102D680008BD00BF7C03002038B515460446B8B13D
:102D7800C16490F96000FDF715FBA36EB4F87210FA
:102D880094F8610013FA81F1064BAAB253F82000B7
:102D9800FEF74CFC94F96000BDE83840FDF7F4BA42
:102DA80038BD00BF7C03002048B1436D013306D114
:102DB80090F86120024B53F82200FEF723BE7047BB
:102DC8007C03002048B1436D013306D190F861209F
:102DD800024B53F82200FEF72DBE70477C030020FB
:102DE800436C04381847836C0438184730B50446D8
:102DF80050F804391D6815F0010585B012D000227D
:102E080000921A6800925B680093009BFFF788FFA6
:102E180040BB012204F15E01204605B0BDE8304008
:102E2800FEF741BE196811F0020106D001951A6833
:102E380001925B680193019BE8E71A6812F00402AB
:102E480006D002911A6802925B680293029BDDE742
:102E580019680907DAD503921A6803925B68039325
:102E6800039BD3E705B030BD08B52520FDF7C0FAB0
:102E7800024B1868BDE80840FEF75ABC7C030020E6
:102E880008B52620FDF7B4FA034B586818B1BDE819
:102E98000840FEF74DBC08BD7C03002008B527207C
:102EA800FDF7A6FA034B986818B1BDE80840FEF78D
:102EB8003FBC08BD7C03002008B53420FDF798FA14
:102EC800024BD868BDE80840FEF732BC7C030020FE
:102ED80008B53520FDF78CFA024B1869BDE80840A3
:102EE800FEF726BC7C03002008B54720FDF780FAD2
:102EF800024B5869BDE80840FEF71ABC7C03002065
:102F0800FEE70000024B16221A604FF0FF307047B0
:102F18004C1300200120704710B594B014220021F2
:102F280009A801F07DFF1422002103A801F078FF11
:102F380000231E4A0193116C41F080511164126CF8
:102F480002F080520192019A194A0293116841F4E1
:102F5800804111601268022402F480420820CDE901
:102F68000E430292A823CDE91003029A0894012186
:102F78001022072308A8CDE90B1212941393FEF729
:102F880005F800B1FEE70F23CDE9033405904FF4AF
:102F9800A0524FF48053052103A8CDE90623FEF77C
:102FA800D1F900B1FEE714B010BD00BF00380240EF
:102FB8000070004070B505460C46084649B1FDF75B
:102FC800DFF82B680246214628465B68BDE870405A
:102FD800184770BD08B50249FFF7ECFF08BD00BFF0
:102FE8004055000830B58BB00023012A0C468DF8F7
:102FF800243098BF0A2209A92546B4FBF2F404FB41
:10300800125303F0FF03092B94BF30333733DBB27D
:10301800AA4201F8013DEFD9FFF7CCFF0BB030BD54
:1030280010B42AB902685DF8044B1268C9B2104797
:103038005DF8044BD2B2FFF7D5BF38B50546FFF7A8
:10304800EFFF04462846FFF7C5FF204438BD07B503
:1030580003688DF807105B6801220DF10701984796
:1030680003B05DF804FB0000014800F0F4B800BFAD
:10307800700400202DE9F041DFF83C800E46174629
:103088001546ADB100F068FB90B1404600F0E3F89A
:10309800A84228BF284604460028F3D031460648EF
:1030A800224600F0F9F82D1B264400F075FBE8E7EE
:1030B800781BBDE8F08100BF70040020014800F0D3
:1030C80091B900BFAA03002010B5044800F0B2F976
:1030D800044600F097FB204610BD00BFAA0300205D
:1030E8002DE9F84306460F46154694B201F02DFA2D
:1030F800DFF83490F06022463946484600F0F7F988
:103108008046A4EB0804A4B200F07CFB47443CB121
:1031180001F01BFAF368C01AB3689842EBD32D1B71
:103128002846BDE8F88300BFAA0300202DE9F04F28
:1031380085B00646884617461C469DB201F005FA3A
:10314800DFF84CA0F0600DF10E092B463A464146D7
:10315800CDF80090504600F012FA834600F052FB7A
:10316800BDF80E30ED1AADB21F44BBF1000F04D00C
:10317800641B204605B0BDE8F08F002DF9D001F0A2
:10318800E4F9F368C01AB3689842DED3F0E700BFE9
:10319800AA030020014800F084B900BFAA03002058
:1031A80010B5034C204600F066F80028FADC10BD84
:1031B8007004002000F0ACBA044B4FF47A7200217E
:1031C800C3E90112024A1A60704700BF9403002045
:1031D8004C55000808B50320FDF792F8BDE80840F3
:1031E80001F0DEB908B5AFF30080FDF70BF8FDF785
:1031F80011F801F0BBF9FAE7DFF834D00D480E49B1
:103208000E4A002302E0D458C4500433C4188C4238
:10321800F9D30B4A0B4C002301E013600432A2429D
:10322800FBD3FFF753FD01F003FEFFF7DBFF704709
:103238000000022000000020E40100207856000869
:10324800E401002050130020FEE70023A0F882309C
:10325800A0F880307047B0F88230B0F880209BB278
:1032680092B2981A7F30434203F07F0300F07F0048
:1032780058BF58427047B0F88030B0F882209BB2EF
:1032880092B203F18000801A434203F07F0300F0FA
:103298007F0058BF58427047F8B5B0F88050ADB2BB
:1032A800C5F18005954204460F46B0F880001646E1
:1032B8000CD914FA80F001F0DFFDB4F8802016FA7A
:1032C80082F202F07F02A4F88020F8BD2A4614FAA0
:1032D80080F001F0D1FD721B79192046EBE7B0F8B8
:1032E8008020B0F8823092B29BB29A422BBFB0F8DD
:1032F8008030B0F88230B0F88220C3F1800328BF54
:103308009B1A9BB20B80A0F88430B0F8823010FA78
:1033180083F07047B0F88220B0F88430134403F08B
:103328007F03A0F8823070470023A0F8C230A0F8CD
:10333800C030C023A0F8C4307047B0F8C22082B0B3
:1033480092B2ADF80620B0F8C010BDF8062089B2D8
:1033580092B29142B0F8C020034692B21FD37F2A9E
:1033680008D9B0F8C02092B2802A09D1BDF8062049
:1033780092B22AB1B3F8C00013FA80F002B07047D5
:10338800BDF8062092B2402A4FF00000F6D9B3F8F3
:10339800C02092B2A3F8C420A3F8C000EAE7BDF8A1
:1033A8000610403289B28A42E4D30020E6E7B0F83A
:1033B800C03011FA83F39BB2A0F8C030B0F8C02037
:1033C800B0F8C43092B29BB29A4224BFC023A0F88E
:1033D800C430B0F8C0309BB2BF2B84BF0023A0F824
:1033E800C0307047B0F8C03082B09BB2ADF804303E
:1033F800B0F8C4309BB2ADF80630B0F8C220BDF8C2
:10340800043092B29BB29A4208D8BDF80430B0F8A2
:10341800C2209BB292B2981A02B07047BDF806302B
:10342800BDF80410B0F8C22089B292B211FA83F044
:10343800801AF1E7B0F8C02082B092B2ADF804204B
:10344800B0F8C42092B2ADF80620B0F8C210BDF8AA
:10345800062089B292B2914204BF0022A0F8C2208D
:10346800B0F8C210BDF8042089B292B29142034666
:1034780014D0B0F8C22092B2511C89B2A0F8C21080
:10348800B3F8C210805CBDF8062089B292B29142AE
:1034980002D30022A3F8C22002B070474FF0FF30D9
:1034A800FAE7B0F8C03082B09BB2ADF80430B0F89B
:1034B800C4309BB2ADF80630B0F8C220BDF8063073
:1034C80092B29BB29A4224BF0023A0F8C230B0F84F
:1034D800C220BDF8043092B29BB29A421BBFB0F82A
:1034E800C2309BB24FF0FF30C05C02B0704737B5B6
:1034F80004460846B4F8C0309BB2ADF80430B4F8BE
:10350800C4309BB2ADF80630B4F8C210BDF806302E
:1035180089B29BB2994224BF0023A4F8C230B4F800
:10352800C210BDF8043089B29BB2994294BFBDF86D
:103538000450BDF80650B4F8C230B4F8C210ED1A01
:10354800ADB2954228BF15462A4614FA81F101F01A
:1035580093FCB4F8C23015FA83F39BB2A4F8C230D6
:10356800B4F8C220BDF8063092B29BB29A4228BF86
:103578000023284628BFA4F8C23003B030BDF7B5F1
:103588001C46B0F8C030089D9BB2ADF80430B0F8C6
:10359800C4309BB2ADF80630B0F8C260BDF8063052
:1035A800B6B29BB29E4224BF0023A0F8C230B0F846
:1035B800C260BDF80430B6B29BB29E4294BFBDF85B
:1035C8000430BDF80630B0F8C260B0F8C2709B1B7A
:1035D8009BB2A34228BF234610FA87F70024A6B25D
:1035E800B34211D82B80B0F8C22013FA82F39BB2F1
:1035F800A0F8C230B0F8C220BDF8063092B29BB233
:103608009A4220D2002018E017F804C08C4516D141
:10361800B0F8C2309BB2013333449BB2A0F8C23039
:10362800B0F8C220BDF8063092B29BB29A4224BFCD
:103638000023A0F8C2302E80012003B0F0BD02F8AC
:1036480004C00134CBE70023A0F8C230DAE7002039
:103658007047000021280ED022281DD0202808D12C
:10366800184B0A681A600A791A714A795A718A7964
:103678009A7100207047134B1A680A701A68120A68
:103688004A705A888A70DA78CA701A790A715A792F
:103698004A719B798B71ECE70B4A4B8812780B497E
:1036A800002A14BF1A46012202F001020A700A78A1
:1036B80012B1074A00211160064AC3F34003137090
:1036C800D7E700BF1400002031000020A903002024
:1036D800A4030020A803002010B5094C0948FFF7EF
:1036E800B4FD2046FFF720FE074B012220461A7042
:1036F800FFF723FE0146054801F049F9002010BDF7
:10370800AA0300207004002030000020F8040020E4
:1037180010B50C4C22789AB90B490C4800F0A4F863
:1037280070B90B49094800F0B2F848B90949074887
:1037380001F014F920B9054800F0C2F801232370FC
:1037480010BD00BFF604002064000020F80400202B
:10375800500100201C00002038B50C4B0C4D1C6893
:103768003CB995F89C32032B0CD0002000F00100E6
:1037780038BDFCF7ABFD95F89C32032BF5D1001B47
:103788000228F2D8034B1878C0B2EFE7A403002050
:10379800F8040020A903002037B50F4CD4F8BC3238
:1037A800D3F81432ABB90D480DF10601FFF797FDB8
:1037B800BDF80630054663B1FCF788FD084BBDF837
:1037C800062018602946204601F0D3F8204601F06B
:1037D800EAF803B030BD00BFF804002070040020F0
:1037E800A403002010B5054B054800241C60FFF712
:1037F80091FDFFF7D1FF204610BD00BFA4030020B4
:103808007004002038B50A4D2B780BB1002038BD64
:103818000848FFF792FD01460028F7D00124064822
:103828002C7001F0B4F8044801F0D8F82046EEE70F
:1038380030000020AA030020F804002008B50988F9
:103848000648FFF7B4FD064B00221A70FFF7DAFFAF
:1038580010B9044801F0D8F8002008BDAA030020D8
:1038680030000020F804002078B10023C0F8B832F6
:10387800C0F8C432C0F8D03209B1C0F8B41201237C
:1038880080F89C32027000F03FBD0320704713B5EA
:1038980000230446ADF8063081B1CB6AC0F8B812EF
:1038A80023B10DF106009847C4F8D002D4F8D832F5
:1038B8000133C4F8D832002002B010BD0320FBE762
:1038C80000F05ABDD0F8B8320BB11B68184718463B
:1038D800704708B5D0F8B8325B689847002818BF19
:1038E800032008BD38B5044600F2AA25284600F092
:1038F80071FB012394F8AA12C4F89432B4F8B032D8
:10390800C4F8983201F01F03012B08D0022B0CD009
:103918008BB929462046BDE8384000F04DB9294604
:103928002046BDE8384000F08BBA29462046BDE85D
:10393800384000F0B2BA204601F08001BDE83840B6
:1039480000F032BD70B50446164609BBD0F8943273
:10395800032B0CD1D0E9573293420AD99B1A9A42C9
:10396800C0F85C3128BF1A46314600F087FB0020BA
:1039780070BD90F89C32032B06D1D0F8B8321B6981
:1039880013B1C0F8D4129847204600F07FFBEEE749
:1039980090F89C32032BEAD1D0F8B8329B69002BFF
:1039A800E5D00022BDE87040C0F8D422184770B5B1
:1039B800044616460D4600293DD1D0F89432022B14
:1039C8000ED1D0E90732934212D99A1AC261314610
:1039D80000F03FFB2B462A462946204600F013FDFF
:1039E80094F8A03213B1002384F8A032002070BDEF
:1039F8000CD18269934209D8D0F898329A4205D2FC
:103A08000A4600F026FBC4F89852E3E794F89C3283
:103A1800032B08D1D4F8B832DB6823B10022C4F8EC
:103A2800D422204698478021204600F0BDFC20463D
:103A380000F037FBD4E790F89C32032BD6D1D0F8AE
:103A4800B8325B69002BD1D00022BDE87040C0F8C5
:103A5800D4221847F8B5012380F89C32D0F8B83240
:103A680000210446C0F894124160C0F8A41280F8FE
:103A7800A012B3B900260022402511460127402391
:103A8800204600F080FCA4F86471C4F860512B460D
:103A980000228021204600F076FCA784256230466B
:103AA800F8BD5B68002BE5D098470028E2D00326D4
:103AB800E1E701740020704790F89C32042B1EBF88
:103AC80090F89C32DBB280F89D32042380F89C3257
:103AD8000020704790F89C32042B02BF90F89D326A
:103AE800DBB280F89C320020704708B590F89C2221
:103AF800032A05D1D0F8B83213B1DB6903B198476E
:103B0800002008BDD0F8D422AE3208B550F82220E3
:103B18004AB190F89C32032B01D1136A0BB90020EB
:103B280008BD9847FBE70320FAE7D0F8D422AE3265
:103B380008B550F822204AB190F89C32032B01D1E5
:103B4800536A0BB9002008BD9847FBE70320FAE742
:103B580000207047012208B580F89C22D0F8B822CE
:103B68000AB9002008BD5268017990470028F8D0AA
:103B78000320F7E7002070470020704710B54288FF
:103B880003789A4201D8002010BD047820442344C9
:103B98004478052C9BB2F4D184788C42F1D1F3E7B8
:103BA80010B58021044600F0FFFB20460021BDE847
:103BB800104000F0F9BB000073B50B7803F0600308
:103BC800202B04460D4612D0402B10D0002B5AD182
:103BD8004B78092B57D8DFE813F00201240156006F
:103BE80016015600840016005600EC00A000D4F818
:103BF800D432AE33294654F823309B68204602B0AD
:103C0800BDE87040184749880023ADF806300B0A14
:103C1800013B062B37D8DFE803F0041C2936364F62
:103C28005900D0F8B4321B68207C0DF10601984782
:103C3800EA88002A00F0A080BDF806301BB39A423B
:103C480028BF1A46ADF806200146204600F0F4F9D0
:103C58001CE0027CD0F8B83232B99B6A0DF106003C
:103C6800984702234370E3E7DB6AF7E7C9B2D0F865
:103C7800B432052918D8DFE801F0030D0F11131528
:103C88005B68002BD0D12046FFF78AFF0025284625
:103C980002B070BD9B68F4E7DB68F2E71B69F0E7E8
:103CA8005B69EEE79B69ECE7DB69002BEBD00DF174
:103CB8000602007C9847BBE7037C002BE3D1D0F8D1
:103CC800B8320DF106005B6B9847B1E7037C002B17
:103CD800D9D1D0F8B8320DF106001B6B98470723ED
:103CE800C0E78B88002BCED1CB88002BCBD14D8859
:103CF8007F2DC8D890F89C32032BC4D0E9B280F845
:103D08009E1200F072FB204600F0C0F91DB102239C
:103D180084F89C32BAE70123FAE78978474D0129EC
:103D2800297003D9FFF73CFF0325B0E790F89C32D0
:103D3800022BDEB208D0032E17D0FFF731FF297807
:103D48002046FFF7C6FDEFE7B1B101214160FFF75B
:103D5800B9FD0546204625B1FFF722FF84F89C628D
:103D680095E700F093F90323D2E749B9022380F8D5
:103D78009C324160FFF7ADFD204600F087F985E7EA
:103D880041680129F8D0C9B2FFF7A3FD297861601D
:103D98002046FFF797FD05460028EDD02046FFF79F
:103DA800FFFE21792046FFF794FD022384F89C3218
:103DB8006DE7CA88012A7FF466AF90F89C12022941
:103DC800CBB207D8002B3FF45EAF0146002341F881
:103DD800083F3AE7032B7FF456AF011D35E790F80B
:103DE8009C32013B022B3FF64EAFCA88022A7FF471
:103DF8004AAFD0F8A4320146002B0CBF012303239D
:103E080041F80C3F21E74B88012B02D1C4F8A432BA
:103E1800B2E7022B7FF437AF8B881B0A80F8A032F9
:103E2800AAE790F89C32013B022B3FF62CAF4B8857
:103E3800012B7FF42BAF0023E8E700BFD407002055
:103E480038B50B7803F060025B0604460D4601D5D1
:103E5800402A1CD194F89C32013B022B17D82979AF
:103E68000229204614D8FFF785FEA0B9D4F8B83245
:103E78009B6883B1C4F8D402294620469847EA884B
:103E880022B918B9204600F001F9002038BD2046B3
:103E9800FFF786FEF9E70320F8E770B50B788A8804
:103EA8000E7903F06003202B04460D4653D0402BB7
:103EB80051D063BB4B78012B3BD0032B20D033BBB5
:103EC80090F89C32022BD9B261D003291FD106F099
:103ED8000F0312F0800F4FF0140202FB030365D0AA
:103EE8009B8CA3B106F07F05013505EB850500EB3A
:103EF8008505730666D100232B600222294651E00E
:103F080090F89C32022BDAB237D0032A03D020462D
:103F1800FFF746FE0BE04B8833B9710604D0EB88F7
:103F280013B9314600F040FA204600F0AFF80020FF
:103F380070BD90F89C32022BDAB21ED0032AE6D16B
:103F48004B88002BF3D1730602D0314600F033FAC8
:103F5800204600F09BF831462046FFF70DFE00286A
:103F6800E5D1D4F8B832C4F8D4029B68002BDED06F
:103F780029462046BDE8704018477206C7D031462A
:103F880000F012FA8021204600F00EFACFE7710601
:103F9800BDD112064CBF00F1140100F5AA7100232F
:103FA8000B600222204600F047F8C0E7B3F86431FE
:103FB800002BACD006F07F05142303FB050505F59F
:103FC800AA7596E73146204600F0FCF9002892D001
:103FD800012391E70B7803704B7843704B8843803B
:103FE8008B888380CB88C380704710B580210446B6
:103FF80000F0DAF920460021BDE8104000F0D4B9FD
:1040080070B50D461646044670B1FCF7B9F8C3B250
:1040180001335B0033802B7003236B70013C022358
:10402800002114F8012F02B970BDEA545A1CD2B20B
:104038000233A954DBB2F4E710B513460222C0E9F3
:104048000633C0F894220A46002100F0D5F9002072
:1040580010BD08B513460A46002100F0CDF900202E
:1040680008BD10B513460322C0E95633C0F89422A0
:104078000A46002100F0C7F9002010BD08B5134614
:104088000A46002100F0BFF9002008BD08B5042247
:104098000023C0F8942219461A4600F0ADF9002012
:1040A80008BD08B505220023C0F8942219461A460F
:1040B80000F0A9F9002008BD30B50368B3F1A04F9E
:1040C80085B004463AD1424D03E0A968FEF74EFD9B
:1040D8000C352868421CF8D13E4B5A6B002542F03B
:1040E80080025A6301955A6C42F480425A645B6CB0
:1040F80003F48043012101932A464320019BFCF7E6
:1041080011F94320FCF740F9216A012916D1324BF5
:104118004FF480225A61DA6822F48022DA609A68C1
:1041280042F480229A601A6842F480221A602A2097
:104138002A46FCF7F7F82A20FCF726F92268274BCD
:104148009A4243D1264D03E0A968FEF70FFD0C35CE
:104158002868431CF8D11F4B002502951A6B42F0C2
:1041680080421A631A6B02F080420292029A039507
:104178001A6B42F000521A631B6B03F000530121C3
:1041880003932A464D20039BFCF7CCF84D20FCF7FF
:10419800FBF8216A012919D10F4B4FF480125A619B
:1041A800DA6822F48012DA609A6842F480129A601F
:1041B8001A6842F480121A604C202A46FCF7B2F8BA
:1041C8004C2005B0BDE83040FCF7DEB805B030BD86
:1041D800FC52000800380240003C01400000044046
:1041E8006052000800F2C441D0F80805FFF77ABB16
:1041F800242303FB0103D0F80805D3F88C22FFF72A
:10420800A1BB242303FB0103D0F80805DA6CFFF7F0
:10421800CEBBD0F80805FFF768BC38B5C1680446BE
:104228000D1E18BF0125D0F80805FFF713FCD4F8B8
:1042380008052946BDE83840FFF73BBC10B50446E1
:10424800D0F80805FFF738FC2268D2F8003E43F0A2
:104258000103C2F8003E236A23B1034A136943F0FD
:104268000603136110BD00BF00ED00E0036A10B53E
:10427800044633B100F062F9084A136923F00603D3
:1042880013612268D4F80805D2F8003E23F0010330
:10429800BDE81040C2F8003EFFF71CBC00ED00E08E
:1042A800D0F80805FFF741BCD0F80805FFF72ABC8D
:1042B800D0F80805FFF74CBCD0F80805FFF74ABC52
:1042C8000148FCF7FBBA00BFD807002010B50B4C1B
:1042D800236A6BB10A4A136923F00603136100F0DD
:1042E8002DF92268D2F8003E23F00103C2F8003EFF
:1042F800044B4FF480225A6110BD00BFD80700203C
:1043080000ED00E0003C014070B5194C054600F096
:1043180005F9042363600023C4E90933C4E90733BA
:1043280063614FF0A04223632361E3626363C4F8CF
:1043380008550223C5F8C84220462260A361E360FD
:10434800FCF7D6F800B1FEE70A4D2046A988FCF72D
:1043580018FE0126AA8955F8081F204601F00F010A
:104368000136FCF7EFFD052EF4D1002070BD00BF2B
:10437800D80700200056000808B5D0F8C802FCF796
:1043880039F9002008BD10B51446D0F8C8021A46FD
:104398002346FCF762F9002010BD08B5D0F8C80222
:1043A800FCF793F9002008BD08B5D0F8C802FCF75F
:1043B80007FA002008BD08B5D0F8C802FCF738FA9B
:1043C800002008BD11F0800FD0F8C8324FF0240249
:1043D8001BBF01F07F0102FB013302FB013393F89D
:1043E8003E0008BF93F87E02704708B5D0F8C802AF
:1043F800FCF71FF9002008BD08B5D0F8C802FCF783
:10440800BFF9002008BD08B5D0F8C802FCF78CF940
:10441800002008BDD0F8C802FCF7AAB91223014849
:104428000B80704750000020042301480B80704720
:104438004C00002000487047E40C0020002370B5B1
:104448004D1C1E46DCB2A24200D870BD040FB0F16C
:10445800204F34BF3034373401F81340000105F8D9
:1044680013600133EEE700001A2310B50B800A4BE6
:10447800D3F8100AD3F8182A80180AD0D3F8144AA7
:1044880006490822FFF7DAFF042210312046FFF719
:10449800D5FF034810BD00BF0070FF1F3400002087
:1044A8003200002010B5044C04480A462146FFF7A4
:1044B800A7FD204610BD00BFE40D00207055000880
:1044C8000A4608B5044920B90448FFF799FD02488F
:1044D80008BD0348F9E700BFE40D00208355000834
:1044E800A355000810B5044C04480A462146FFF7B6
:1044F80087FD204610BD00BFE40D0020C35500080D
:1045080010B5044C04480A462146FFF779FD2046B9
:1045180010BD00BFE40D0020DF55000808B54FF0BE
:10452800A040FEF7DFF80A2000F011F8BDE80840C7
:104538004FF0A040FEF7C8B8FFF7EAB808B5FEF795
:10454800EBF9BDE80840FEF7E7BCFEF7D9B938B586
:10455800044648B1FEF7D4F9054600F023F8FEF703
:10456800CFF9431BA342F8D338BD000008B5084B68
:104578002BB1084800F058FA08B1AFF30080064B99
:104588002BB10648FEF79AFD08B1AFF3008008BDCD
:10459800000000000011002000000000940300202B
:1045A800FEF7FEB97047D0F8D43200EB830010B59F
:1045B800D0F8C0428CB1D0F8C4321BB194F80002D4
:1045C800FF2801D1002010BD9B6894F801222146E4
:1045D8009847FF2384F80032F4E70320F3E700004C
:1045E8000A230380004870478801002070B58321A2
:1045F80006460F48FFF7C2FA012105460C48FFF7A7
:10460800BDFA822104460A48FFF7B8FA0DB1102214
:10461800AA711CB1402222710022627118B1402295
:1046280002710022427143230148338070BD00BFEC
:104638008400002070B5832106460F48FFF79EFAD4
:10464800012105460C48FFF799FA822104460A48D9
:10465800FFF794FA0DB11022AA711CB14022227101
:104668000022627118B14022027100224271432374
:104678000148338070BD00BFC800002070B5832199
:1046880006460F48FFF77AFA012105460C48FFF75E
:1046980075FA822104460A48FFF770FA0DB1102214
:1046A800AA711CB1002222710222627118B1002283
:1046B80002710222427143230148338070BD00BF5A
:1046C8000C01002038B5D0F8D432B033044650F885
:1046D80023508DB1FFF79EFED4F8D432C5F80C02F2
:1046E80004EB8304D5F80402D4F8C43205F5037149
:1046F800DB689847002038BD0320FCE7F8B5D0F800
:10470800D462D0F8C87200EB86060A46D6F8C052C2
:1047180025B301F00F0C142404FB0C04A3697BB12E
:104728004FF0240E0EFB0C77BF6CB3FBF7FC07FBB6
:104738001C332BB9A3611A46FFF75EFE0020F8BDB3
:104748000023C5F81432D6F8C4321B69002BF5D003
:10475800D5F8080205F504719847EFE70320EEE75E
:10476800D0F8D432F7B500EB83030022D3F8C06247
:104778008DF8052004460D46ADF80620002E65D0BC
:1047880091F800C01CF0600229D0202A5AD1CA88AA
:104798004F78F2B11CF0800F0ED0D3F8C4323146F6
:1047A8009B6838469847EA88072A28BF0722314677
:1047B8002046FFF741FC09E0402A28BF402286F83E
:1047C800007286F801223146FFF74BFC002003B047
:1047D800F0BDD3F8C43238469B689847F6E74B7863
:1047E8000B2B2FD801A252F823F000BF2548000850
:1047F800D54700084D4800084D4800084D480008B6
:104808004D4800084D4800084D4800084D4800082C
:104818004D480008354800084548000890F89C3283
:10482800032B0FD102220DF10601C1E790F89C324B
:10483800032B07D101220DF10501B9E790F89C324D
:10484800032BC3D029462046FFF7CFFB0320BEE742
:1048580038B5044600258221FFF79FFD0121A4F801
:104868004C502046FFF799FDA4F878518321204643
:10487800FFF793FDD4F8D432256604EB8303D3F80D
:10488800C02252B1D3F8C4325B689847D4F8D43206
:10489800B03344F82350C4F8BC52002038BD00009F
:1048A800F8B52D4D04464FF407720021284600F054
:1048B800B7FAD4F8D432B03344F82350237CC4F880
:1048C800BC52CBBB4FF40073822102222046FFF773
:1048D8005AFD0121A4F84C104FF40073022220461F
:1048E800FFF751FD012610230322A4F8623083212B
:1048F8000823A4F878612046FFF745FDD4F8D432A0
:10490800A4F8606004EB83030027D3F8C432C5F829
:1049180004721B689847D5F80422C5F81472C5F8C4
:104928001872B2B1237C93B94FF400733146204614
:10493800FFF769FD0020F8BD4023822102222046AE
:10494800FFF721FD0121A4F84C104023C6E74023BE
:10495800ECE70220EFE700BFE40E002039B1D0F801
:10496800D43200EB8300C0F8C41200207047032043
:104978007047D0F8D432B03350F823302BB1C3F895
:104988000812C3F810220020704703207047D0F89F
:10499800D432B03350F823301BB1C3F804120020CE
:1049A800704703207047D0F8D432B03310B550F8B0
:1049B80023207AB1D2F8144201236CB9C2F8143218
:1049C800D2F810320364D2F808228221FFF714FDCE
:1049D800204610BD0320FCE71846FAE7D0F8D42299
:1049E800B03208B550F8222062B1037CD2F8042214
:1049F80033B94FF400730121FFF705FD002008BD0E
:104A08004023F8E70320FAE7D0F8D422B03208B5FB
:104A180050F8223033B100231A460121FFF7F3FC86
:104A2800002008BD0320FCE7B0F80431B0F80021ED
:104A3800981A00F03F007047B0F80431B0F8002130
:104A48009BB293421ABFD0F8F830985C4FF0FF3011
:104A5800704790F80231B0F80601C0B2834227BF10
:104A6800C3F13F03C018C01A00F1FF30704707B503
:104A780003688DF807105B6801220DF1070198475C
:104A880003B05DF804FB0000B0F87220416F11FA22
:104A980082F202F03F0210B5A0F87220B0F872104E
:104AA800B0F86E2089B28A421AD0B0F87240B0F8D5
:104AB8007210A4B24032121B544289B204F03F046F
:104AC80002F03F02C1F1400158BF62428A4228BF4A
:104AD8000A4642670349FEF747F94FF0FF3010BD19
:104AE8000020FCE7914A000803682DE9F0479B681D
:104AF800044688461646984701232374D4F8E830BC
:104B0800B4F8029101338246C9F1400904F19407CF
:104B180008D194F80C312BB1002384F80C313846B5
:104B2800FEF742F9236820469B6898470028F9D089
:104B380035464D4523D8554521D8B4F80221D4F837
:104B4800FC005319402B10442FD82A46414600F048
:104B580093F9A946B4F802311D4405F03F05A4F8BD
:104B680002513846FEF7EEF830B91749C4F80891F3
:104B78004A463846FEF7F8F83046BDE8F087D14592
:104B8800236828BFD1464A4641465B682046984775
:104B9800236820469B689847A5EB0905C844B4F8E4
:104BA80002918246C9F14009C3E7C2F140094A4669
:104BB800414600F061F9D4F8FC00A5EB090208EBC6
:104BC800090100F059F9C5E7914A0008037C33B19F
:104BD800B0F80221B0F806319BB29A42FAD1704778
:104BE800C0F8EC30009BC0F8F030914208BF4FF09D
:104BF800FF3100F11103C0E93921C0F8F83000F1A4
:104C080051020023A0F80431C0E93F23A0F806317F
:104C180070470000CBB2322B08D80E4A52F8233026
:104C280001F4E0611943C0F8E810704701F0C002D0
:104C3800C02A0CD1CF2B0AD8074B01F03F0201F450
:104C4800E06153F82220034B53F82230EAE74FF093
:104C5800FF31E8E77454000834540008CBB2322B13
:104C680008D80E4A52F8233001F4E0611943C0F81D
:104C7800E410704701F0C002C02A0CD1CF2B0AD82B
:104C8800074B01F03F0201F4E06153F82220034B87
:104C980053F82230EAE74FF0FF31E8E77454000890
:104CA8003454000873B54FF47A7316460022C0E9ED
:104CB80001231B4B03604FF0FF33C0F8E830194B5A
:104CC8001A68194B0D460446184953F82200FDF797
:104CD800E6FF854216D1C1212046FFF79BFFC02180
:104CE800FFF7BCFF012E4FF0FF3308BFC4F8E830D0
:104CF80000932046D4E939214FF0FF33FFF770FFC6
:104D080002B070BD0A492846FDF7DAFF0749C4F822
:104D1800E8002846FDF7D4FFC4F8E400E2E700BF46
:104D2800305600083454000874540008BC53000876
:104D380044530008D0F8E830013310B504460ED1CA
:104D48000368DB68984794F80C3143B9012384F869
:104D58000C3104F19400BDE81040FEF733B810BDE3
:104D680010B50446FFF7E6FFB4F80421B4F80031A3
:104D780092B29A421FBFD4F8F820D05C013303F0F6
:104D88003F0314BFA4F800314FF0FF3010BD0000FE
:104D9800024903480022FFF785BF00BF004C0040CE
:104DA8000011002010B50446FFF7CFFBE060236830
:104DB80020465B699847002808DAFFF7C6FBE368D6
:104DC800C01AA3689842F2D34FF0FF3010BDF8B56F
:104DD80007460D468E180C46B44201D1601BF8BD3B
:104DE8003846FFF7DFFF031EF8DB04F8013BF3E763
:104DF8002DE9F0410746884616461D4673B1002442
:104E08003846FFF7CFFF031E05DB434503D0335574
:104E18000134A542F4D12046BDE8F0811C46FAE7EA
:104E280002440346934200D1704703F8011BF9E797
:104E380070B50D4D0D4C641BA4100026A64209D177
:104E48000B4D0C4C00F0D4F9641BA4100026A642AC
:104E580005D170BD55F8043B98470136EEE755F883
:104E6800043B98470136F2E75C5600085C56000898
:104E78005C560008705600080A44914200F1FF335E
:104E880000D1704710B511F8014B03F8014F91425A
:104E9800F9D110BD08B5062000F02CF80120FEF766
:104EA8002FF81F2938B505460C4604D91623036088
:104EB8004FF0FF3038BDC26B12B152F821304BB9F8
:104EC800284600F031F8224601462846BDE8384019
:104ED80000F018B8012B0AD0591C03D1162303601F
:104EE8000120E7E7002142F82410204698470020D7
:104EF800E0E70000024B01461868FFF7D2BF00BF89
:104F08009401002038B5074D002304460846114691
:104F18002B60FDF7F7FF431C02D12B6803B1236018
:104F280038BD00BF4C130020FDF7F4BF2DE9F04752
:104F3800089D0C46002B4ED194468C458646B2FA05
:104F480082F262D94AB1C2F12003914020FA03F3F8
:104F58000CFA02FC194300FA02FE4FEA1C471FFA3A
:104F68008CF6B1FBF7F44FEA1E4307FB141143EA32
:104F7800014304FB06F199420AD91CEB030304F12F
:104F8800FF3080F01381994240F21081023C634463
:104F9800591A1FFA8EF3B1FBF7F007FB101143EA19
:104FA800014300FB06F69E420AD91CEB030300F1FD
:104FB800FF3180F0FD809E4240F2FA80634402385F
:104FC8009B1B40EA044000211DB1D3400022C5E9E3
:104FD8000032BDE8F0878B4205D90DB1C5E9000163
:104FE80000210846F5E7B3FA83F1002946D1A34228
:104FF80002D39042C0F0F180861A64EB03030120CB
:10500800002DE6D0C5E90063E3E7002A40F091806F
:10501800A1EB0C044FEA1C481FFA8CF70121B4FBE2
:10502800F8F64FEA1E4308FB164443EA044307FB1D
:1050380006F0984208D91CEB030306F1FF3402D2AC
:10504800984200F2CE8026461C1A1FFA8EF3B4FB53
:10505800F8F008FB104443EA044300FB07F79F42BB
:1050680008D91CEB030300F1FF3402D29F4200F27F
:10507800B1802046DB1B40EA0640A5E7C1F12006C7
:105088008B4022FA06F71F4320FA06FC04FA01F3C4
:1050980043EA0C03F44000FA01F8380C4FEA1349CC
:1050A800B4FBF0FE1FFA87FC00FB1E4449EA0444E7
:1050B8000EFB0CF9A14502FA01F20AD93C190EF1CE
:1050C800FF3A80F08580A14540F28280AEF1020E61
:1050D8003C44A4EB09041FFA83F9B4FBF0F300FB8A
:1050E800134449EA044403FB0CFCA44507D93C19C2
:1050F80003F1FF3068D2A44566D9023B3C4443EA39
:105108000E40A0FB0293A4EB0C049C42CE469C46A6
:1051180052D34FD055B1B8EB0E0364EB0C0404FA2C
:1051280006F6CB40CC401E43C5E900640021BDE82B
:10513800F087C2F1200320FA03F10CFA02FC24FAEA
:1051480003F394400C434FEA1C4800FA02FE1FFA8E
:105158008CF7B3FBF8F008FB1031230C43EA01434A
:1051680000FB07F1994208D91CEB030300F1FF3655
:105178002CD299422AD9023863445B1AA4B2B3FBF1
:10518800F8F108FB113344EA034401FB07F3A34297
:1051980008D91CEB040401F1FF3613D2A34211D93C
:1051A80002396444E41A41EA004138E70446EFE66C
:1051B800084605E7C845ADD2B9EB020E63EB070C0C
:1051C8000138A7E73146EDE7034698E73046D4E7CC
:1051D800D6467EE7634402384CE70646234608462F
:1051E8000EE7023E63442FE708B5FFF753FE0000C1
:1051F800F8B500BFF8BC08BC9E467047F8B500BFBC
:08520800F8BC08BC9E4670478B
:10521000010000000200000004000000080000007F
:10522000100000002000000040000000800000008E
:10523000000100000002000000040000000800005F
:10524000001000000020000000400000008000006E
:105250000000000000000000010203040607080926
:105260000300000000000440120A000005000000D6
:1052700000000440120A000010000000000004407A
:10528000120A00001100000000000440120A000091
:105290001500000000000440120A00001A0000007F
:1052A00000000440120A00001B000000000004403F
:1052B000120A00001C00000000000440120A000056
:1052C0001D00000000000440120A00002000000041
:1052D00000000440120A0000220000000000044008
:1052E000120A00002300000000000440120A00001F
:1052F000FFFFFFFF000000000000000008000000AA
:1053000000000050120A00000900000000000050D8
:10531000000000000A000000000000501A0A00000F
:105320000B00000000000050120A00000C000000FA
:1053300000000050120A0000FFFFFFFF0000000005
:105340000000000001000000004C004012080000B6
:105350000300000000440040120700000A000000A3
:10536000001001401207000017000000001001406B
:10537000120700001B000000004800401207000058
:105380002700000000140140120800002B0000005C
:10539000004C0040120800002B01000000480040B3
:1053A0001207000032000000005000401208000008
:1053B000FFFFFFFF000000000000000000000000F1
:1053C000004C0040120800000200000000440040B1
:1053D0001207000009000000001001401207000041
:1053E0001600000000100140120700001A00000023
:1053F0000048004012070000260000000014014091
:10540000120800002A000000004C004012080000B2
:105410002A01000000480040120700002C00000094
:105420000050004012080000FFFFFFFF00000000D6
:105430000000000000000000010000000200000069
:10544000030000000400000005000000060000004A
:105450000700000010000000110000002000000004
:1054600021000000220000002300000024000000B2
:105470002500000000000000010000000200000004
:10548000030000000400000005000000060000000A
:105490000700000008000000090000000A000000EA
:1054A0000B0000000C0000000D0000000E000000CA
:1054B0000F000000100000001100000012000000AA
:1054C000130000001400000015000000160000008A
:1054D0001700000018000000190000001A0000006A
:1054E0001B0000001C0000001D0000001E0000004A
:1054F0001F0000002000000021000000220000002A
:105500002300000024000000250000002600000009
:105510002700000028000000290000002A000000E9
:105520002B0000002C0000002D0000002E000000C9
:105530002F00000032000000700000007100000029
:105540000D0A0000000000000000000057300008B5
:105550007D30000871300008A9310008C53000080E
:10556000D13000089D310008E930000835310008CD
:1055700053544D6963726F656C656374726F6E69C5
:1055800063730047454E455249435F4634303552B8
:105590004754582043444320696E204853204D6FA0
:1055A00064650047454E455249435F4634303552A5
:1055B0004754582043444320696E204653204D6F82
:1055C00064650047454E455249435F463430355285
:1055D0004754582043444320436F6E666967004731
:1055E000454E455249435F46343035524754582062
:1055F00043444320496E7465726661636500000030
:10560000000000004000000080000000400000009A
:105610000100000040000000820000004000000087
:1056200083000000080000000000000000000000EF
:10563000774A0008F14A00085B4A0008D54B000889
:10564000314A0008694D0008414A0008D74D00085A
:04565000F94D000808
:08565400E0F8FF7F01000000F7
:10565C00DD310008F1010008552A0008C1310008AD
:04566C00994D00084C
:08567000CD0100082D2B0008FC
:10567800010000001000000000300240000000009F
:105688000024F40000C2010000000800E136000810
:10569800573600085D36000845380008ED37000821
:1056A80001011A03000000000000000000000000D3
:1056B80000000000000000000000000004030904CE
:1056C8001201000202020040830440570002010256
:1056D800030100002544000831440008AD440008D7
:1056E800C944000871440008ED4400080945000851
:1056F8003D44000809074300020104C032090400C0
:105708000001020200000524001001052401000127
:10571800042402020524060001070583030800107B
:1057280009040100020A0000000705010240000008
:10573800070582024000000009024300020100C080
:1057480032090400000102020000052400100105CE
:105758002401000104240202052406000107058330
:105768000308001009040100020A000000070501EF
:1057780002400000070582024000000009024300C1
:10578800020100C0320904000001020200000524E1
:10579800001001052401000104240202052406006A
:1057A800010705830308001009040100020A00002C
:1057B800000705010200020007058202000200003E
:1057C800A948000859480008694700080000000077
:1057D800AF45000805470008CD4600080000000056
:1057E8000000000000000000854600083D46000853
:1057F800F5450008E94500080A06000200000040D7
:105808000100000098010020000000001412002090
:105818007C120020E41200200000000000000000BC
:105828000000000000000000000000000000000070
:105838000000000000000000000000000000000060
:105848000000000000000000000000000000000050
:04585800000000004C
:0400000508003201BC
:00000001FF
