:020000040800F2
:10000000000002203D5700088D5700088D5700085A
:100010008D5700088D5700088D570008000000001C
:100020000000000000000000000000008D570008E4
:100030008D570008000000008D570008D3470008C6
:100040008D5700088D5700088D5700088D57000800
:100050008D5700088D570008CD480008D348000888
:10006000D9480008DF480008E54800088D57000817
:100070008D5700088D5700088D5700088D570008D0
:100080008D5700088D5700088D5700088D570008C0
:100090008D5700088D5700088D570008EB48000861
:1000A000853900089D38000899390008C1380008D2
:1000B000D5380008E9380008FD380008C10A0008F2
:1000C000CD0A0008D90A0008E50A00088D57000883
:1000D0008D570008A1520008B9520008D5520008F7
:1000E000014900088D57000811680008AD39000863
:1000F0004D390008C1390008713900088D570008D2
:100100008D5700088D570008113900088D570008D9
:10011000F152000809530008253900083939000850
:100120008D5700088D5700088D5700088D5700081F
:100130008D57000800000000000000008D570008E7
:100140008D5700088D5700088D5700080568000876
:100150008D5700088D5700088D570008215300085F
:10016000F10A0008FD0A00088D5700088D570008A5
:100170008D5700088D5700080000000000000000A7
:080180008D5700088D5700089F
:10018800034613F8012B002AFBD1181A01387047CF
:1001980053B94AB9002908BF00281CBF4FF0FF31E6
:1001A8004FF0FF3000F00CB8ADF1080C6DE904CE4B
:1001B80007F0D6FADDF804E0DDE9022304B0704761
:1001C800704700BF10B5054C237833B9044B13B101
:1001D8000448AFF300800123237010BD0C020020F7
:1001E800000000002C7A000808B5034B1BB1034936
:1001F8000348AFF3008008BD000000001002002093
:100208002C7A000808B507484FF4E13105F056FA92
:100218000548002100F028FABDE80840642006F0EF
:100228009FBC00BFAC040020280200202DE9F84341
:1002380026492748274FDFF8B880254D05F000F9F3
:100248002549234805F0FCF82449214805F00EF912
:10025800002601242146384600F07CF8384600F094
:100268003FF904F1010990B91D49284605F0E8F85D
:1002780001360F2C13D81B49284605F0E1F8214612
:100288001022284605F01FF95FFA89F4E2E70428EE
:100298000AD14146284605F0D3F80F2CEAE7102288
:1002A8002146284605F00FF95FFA89F47F2CD1D151
:1002B8004EB90D49064805F0D9F8BDE8F8434FF4A2
:1002C8007A7006F04DBC0949F4E700BF447A00088B
:1002D800AC040020280200204E7A0008537A000857
:1002E800587A0008777A0008957A0008AB7A0008EF
:1002F800797A000800207047028BC08A101A70476C
:10030800C28A018B914288BF0169034683BF885C1A
:100318000132DA824FF0FF307047028BC38A9A426B
:1003280086BF0269D05C4FF0FF307047806DD0F80F
:10033800DC302BB100234384D0F8E030D4301847A8
:100348007047836810B5044613B1032201469847E5
:10035800204610BD0123994080F82430002381767F
:100368004384704738B5838A8B4205460C4609D2C8
:10037800202938BF20240069214607F0D1F810B1A0
:100388002861AC8238BDFEE773B5846D866ED4F8FB
:10039800CC300546E3B1E28A238B9A4218D3314622
:1003A8002046FFF7DFFF2069324605F1740107F0A8
:1003B8002BF90023E382D4F8CC30268301960BB9BD
:1003C80007F02CFBD4F8D03001A904F1C4009847F9
:1003D80002B070BDB1F5806F70B505460C4610D8F7
:1003E800038C99420AD920290E4638BF2026C069B5
:1003F800314607F095F818B1E8612E84204670BDA3
:10040800FEE70024FAE713B590F824308DF80710BA
:1004180004467BB1418C0131FFF7DCFF40B1638CAE
:10042800E2699DF80710D154638C0133638401207D
:1004380002B010BD01220DF10701283000F03EFA8C
:10044800B0FA80F04009F3E770B590F8243004461C
:100458000E46154693B1418C1144FFF7BBFF10B906
:100468000025284670BD638CE0692A461844314649
:1004780007F0CAF8638C2B446384F2E792B2283001
:1004880000F01CFA0028EBD1EBE70346C06918B16D
:100498001A8C002107F07AB8704738B50446D1B9EC
:1004A8004FF42A03A36594F8BE30012B16D1638C50
:1004B800E269A17E04F1280000F03AFA042828BF76
:1004C800042045B22046FFF7E0FF0023638484F848
:1004D8002430E8B238BD4FF02A43E3E70425F8E7B3
:1004E8000121FFF7DABF002110B50446C18201835C
:1004F800006910B1A28A07F049F8002363842046F6
:10050800FFF7C3FF10BD00002DE9F0410446D0F805
:10051800840005F0F5F8002106F0B6FAD4F8843026
:10052800C3F30312082A43D8254D264F55F8222035
:1005380003F00F03126957F8233093433ED0D4F8E1
:10054800880005F0DDF8012106F09EFAD4F888004D
:100558001D4BC0F3031108291B682CD800F00F02AB
:100568001A4C57F82270B3FBF4F3194A0A24634370
:1005780014264FEA074E55F821C0CCF818E0D2F8F7
:1005880004805468A4EB0804A342FADCCCF8187081
:10059800D2F804C05468A4EB0C04A342FADC013E70
:1005A800E9D105F0ADF83146BDE8F04106F06CBA86
:1005B80000231B69FFDE00239B61FBE7BDE8F08198
:1005C80008000020E07A00083400002040420F00B4
:1005D800001000E02DE9F0411F46D0F8DC30C0F8EB
:1005E80080000025C0E90455C0E9075504460E46B9
:1005F80090460583857633B100F1D401032208467D
:100608009847C4E93755002384F82430730084F8E8
:100618002530731E5E425E41204684F8BE6084F831
:10062800BF8084F8C07004F12805FFF76DFF94F8C7
:1006380025300A494FF48042284600F05DF894F8C6
:10064800BE304BB92846064900F0CAF92846054984
:10065800BDE8F04100F0BDB9BDE8F081A086010019
:1006680035030008910300080A4600230121FFF71B
:10067800B1BF0022C0E90022C0E90222704700226F
:10068800C0E90022C0E902227047000000224FF4AE
:100698007A7310B5C0E90123094B044640F8C43BFE
:1006A800FFF7E7FF04F1D400FFF7E9FF054BDA6D28
:1006B800C4F884209B6DC4F88830204610BD00BF64
:1006C800BC7A0008888000080148FFF7DFBF00BF38
:1006D8002802002010B5064C064B204640F8D43BB3
:1006E800FFF72FFE04F1C400FFF72BFE10BD00BF7B
:1006F80028020020BC7A00082DE9FF410D46164665
:100708001F460446002800F0C2806249C06D04F00C
:1007180043FA61498046206E04F03EFA0146B8F17A
:10072800000F00F0B480002800F0B180404604F0CB
:100738005AFA2060002800F0AA80584B984204F129
:1007480004084FF0000360D10193554B1A6C42F432
:1007580000121A641A6C02F400120192019A1A6AC1
:1007680042F400121A621A6A22F400121A6242F261
:100778001F03A4F864304B4BC3F800804649206E31
:1007880004F0F2F9E06D434904F0EEF946482268B6
:10079800854276D94548854203D94548854288BF70
:1007A80000204FF48043C4E9033794F897300025BC
:1007B8005B1B18BF01239B01236294F89830E56105
:1007C8005B1B18BF0123DB016362C4E9012002211E
:1007D8002A4694F9640084F84150C4E9056500F09C
:1007E80007FA94F9640000F035FA94F965002A468E
:1007F800022100F0FDF994F9650000F02BFA40465B
:1008080000F030FB00283ED0FEE72A4A90421AD179
:100818000293234B1A6C42F480021A641A6C02F495
:1008280080020292029A1A6A42F480021A621A6AD2
:1008380022F480021A6242F22123A4F86430194B90
:10084800C3F804809AE71C4A904297D10393144B4B
:100858001A6C42F400021A641A6C02F40002039241
:10086800039A1A6A42F400021A621A6A22F400020F
:100878001A6244F64813A4F864300A4BC3F8088097
:100888007CE700238FE70223A06684F8953004B044
:10089800BDE8F081E87F0008AC7F00080054004004
:1008A800003802400C030020A0860100801A0600D0
:1008B80040420F0000580040005C0040202A30B53C
:1008C80014D800239CB2A24207D890F8943013445D
:1008D800DBB280F89430002030BD90F89440CD5CB5
:1008E8001C440444013384F87450EBE70120F3E717
:1008F80010B564230446043000F05AFB02280AD0DD
:10090800032801D068B910BD94F84130202B0CBFE2
:1009180002200520F7E794F84130202B18BF062065
:10092800F1E794F84130202B0CBF02200420EAE7BD
:100938002DE9F34704460E4691461F4600F02CF970
:1009480080463FB901223146204602B0BDE8F04753
:10095800FFF7CEBFD4F830A000250434CDF800A0AE
:100968003B464A463146204600F0D2FB022807D1D2
:1009780000F012F9A0EB0805642DEFD906201FE05E
:1009880008BB00F009F90646204601F033FB202891
:1009980009D0632D07D800F0FFF8851B204601F029
:1009A8002CFB0028F0D0204601F027FB632D0CD843
:1009B80082060AD443070AD4003818BF01208000F1
:1009C80002B0BDE8F0870420FAE70520F8E7032025
:1009D800F6E720B119B1C166043000F079BC704760
:1009E80020B119B10167043000F072BC704770B5CE
:1009F80090F89130012B04460D46A0F1040609D168
:100A0800436E3BB1836E30469847022384F8913099
:100A1800002363668DB9E36E84F891501BB184F8A6
:100A280090503046984794F8902004F17001204681
:100A38002023BDE8704000F0D5BB00230122636687
:100A480084F89120616E7431314420460423BDE856
:100A5800704000F002BC10B590F89130012B0446AC
:100A680004D1436E13B1836E04389847022384F887
:100A78009130002363662046BDE8104000F028BC92
:100A8800436E1F2BDEBF436E0133436690F89130EF
:100A9800012BDAB205D1416E70310423014400F014
:100AA800DCBB7047002380F89030704790F8923094
:100AB8000BB900F00DBC7047014B186800F09CBDE5
:100AC8000C030020014B186801F0ECB90C0300205E
:100AD800014B586800F090BD0C030020014B58688A
:100AE80001F0E0B90C030020014B986800F084BDC8
:100AF8000C030020014B986801F0D4B90C030020C6
:100B08007047000038B50E4B1A784FF47A73B3FB70
:100B1800F2F30C4A05461068B0FBF3F000F0BAF89F
:100B2800044658B90F2D09D8024629464FF0FF3020
:100B380000F05EF8044B20461D6038BD0120FCE73C
:100B480000000020340000200400002008B50B4BF2
:100B58001A6842F400721A601A6842F480621A60D5
:100B68001A6842F480721A60032000F02FF80020FF
:100B7800FFF7C8FFFFF7C4FF002008BD003C024094
:100B8800034A044B11681B780B441360704700BF7D
:100B98001803002000000020014B1868704700BFB0
:100BA8001803002038B50446FFF7F6FF631C1CBF86
:100BB800054B1B78054618BFE418FFF7EDFF431BEC
:100BC800A342FAD338BD00BF000000200749CA6815
:100BD80022F4E0620302120403F4E063120C1343EC
:100BE80043F0BF6343F40033CB60704700ED00E08F
:100BF800164B30B5DC68C4F30224C4F10703251D85
:100C0800042B28BF0423062D4FF0FF358CBF033C6F
:100C1800002405FA03F321EA0303A54022EA0502AA
:100C2800A340002843EA0203ACBF00F16040084A31
:100C38004FEA0313B8BF00F00F00DBB2AABF00F5FC
:100C48006140135480F8003330BD00BF00ED00E070
:100C580014ED00E0002807DB044A4109012300F0F5
:100C68001F00834042F82130704700BF00E100E0D8
:100C780000280CDB4309064900F01F00203301223D
:100C8800824041F82320BFF34F8FBFF36F8F704727
:100C980000E100E00138B0F1807F0BD24FF0E02393
:100CA800054A5861F02182F8231000200722986134
:100CB8001A6170470120704700ED00E0002808DB4A
:100CC8004309044900F01F0001226033824041F8C3
:100CD8002320704700E100E0704708B5FFF7FCFFEC
:100CE80008BD704710B5044650B1437903F0FF02C0
:100CF80013B90271FFF7F5FF01236371002010BDDE
:100D08000120FCE710B5044640B10223037103F04B
:100D1800FBFC002020616071207110BD0120FCE700
:100D280010B504680122236801F0100102FA01F1EC
:100D380023EA010323600271002010BD70B5044648
:100D4800866DFFF729FF94F83530022B054606D04B
:100D5800802363650120002384F8343070BD236844
:100D68001A6822F016021A605A6922F080025A6143
:100D7800226C0AB9A26C1AB11A6822F008021A6029
:100D88001A6822F001021A602368186810F001003E
:100D980007D1E26D3F239340B360012384F83530D7
:100DA800D9E7FFF7F9FE401B0528EDD920230320DA
:100DB800636584F83500CEE790F83530022B03D010
:100DC80080234365012070470268052380F8353089
:100DD800136823F0010313600020704790F8350072
:100DE80070470000044A5169014208B502D05061B9
:100DF80003F052FD08BD00BF003C01402DE9F84654
:100E080006460F4691461D464FEA114A3368BAF125
:100E1800010F0CBF5C699C6927EA0404A4B2B4FA08
:100E280084F46409A14501D0002017E06A1CEED0C3
:100E3800FFF7B2FE089BC01AA84201D8002DE5D1E1
:100E480000232022336386F83D2086F83E30326C3A
:100E580086F83C3042F0200232640120BDE8F88672
:100E68007047000070B5044608B9012070BD90F8BD
:100E78003D3003F0FF021BB980F83C20FFF7F0FF7C
:100E8800242384F83D3023681A6822F001021A608E
:100E98001A6842F400421A601A6822F400421A6082
:100EA80002F078F83E4B65689D4294BF3D4B3E4B3F
:100EB8009842DAD921683D4A4B68B0FBF2F223F038
:100EC8003F0313434B60431E35480E6A854226F0A4
:100ED8003F0639D8013232430A62C8696A00B3FB57
:100EE800F2F2531C40F6FC7220F44F40134220F0FB
:100EF800FF0045D104230343CB61D4E907300A68D6
:100F0800034322F0C00213430B608A68D4E9030349
:100F180022F40342034322F0FF0213438B60D4E917
:100F28000530CA68034322F0FF021343CB600B6805
:100F380043F001030B6000202023206484F83D3037
:100F4800206384F83E0091E74FF4967042434FF4D3
:100F58007A70B2FBF0F2013232430A62C869A268C1
:100F680020F44F4020F0FF006AB119226A43B3FB16
:100F7800F2F30133C3F30B0383B143F44043BAE7FD
:100F8800C3F30B03B7E705EB4502B3FBF2F20132FB
:100F9800C2F30B0313B143F40043ACE70123AAE700
:100FA800A08601007F841E00FF083D0040420F001C
:100FB8002DE9F04F044685B01F4688469246FFF754
:100FC800EBFD94F83D30202B054603D0022005B0F8
:100FD800BDE8F08F00904C49192301222046FFF705
:100FE8000DFF0028F2D194F83C30012BEED00123FC
:100FF80084F83C302368DFF810B11A68D2075EBF66
:101008001A6842F001021A601A6822F400621A6033
:10101800242384F83D3000263C4B266408F0FE0863
:10102800E3622268136843F4807313604FF0011180
:101038003B46009500222046FFF7E0FE236838B1C2
:101048001B68DB0544BF4FF4007323640320BEE72D
:10105800C3F81080FFF7A0FD23685A695B6905464D
:10106800C2F34002C3F380234FF0A00994F83D1067
:10107800A02901D013431DD023684FF0200984F81C
:101088003D905A6912F0020F1A6842F400721A6011
:1010980025D0002203925A6903929B690393039B0C
:1010A80019490095192301222046FFF7A7FE88B1A8
:1010B80001208CE7FFF770FD401BB84200D80FB93C
:1010C80084F83D9023685A695B69C2F34002C3F310
:1010D8008023CBE784F83D9084F83C0077E76FF4F1
:1010E80080625A6159460095192301222046FFF76C
:1010F80085FE0028DCD10136564592D384F83D9010
:1011080084F83C00D4E700BF020010000000FFFF95
:10111800F7B5002504460095019594F83D500898C8
:10112800202D02D0022003B0F0BD25682E68B60538
:1011380003D4082801D001281ED1294E46F2A81749
:101148003668B6FBF7F619277E430196019E013EE5
:101158000196019E6EB92023266384F83D3084F8F9
:101168003E60236C84F83C6043F020032364012034
:10117800D9E7AE69B707E9D494F83C60012ED1D01D
:101188002E68F6075EBF2E6846F001062E602E68B0
:1011980026F400662E60212684F83D60102684F827
:1011A8003E60002626646385638DE0626164238562
:1011B800236B0093009B6262112B05D1B0F52A0FB7
:1011C80002D0B0F12A4F03D12B6843F480732B600F
:1011D800002084F83C006B6843F4E0636B60A2E78E
:1011E8003400002037B5044690F83D0000F0280090
:1011F800282830D100292CD0002A2AD094F83C0085
:10120800012828D025682868C0075EBF286840F0F4
:1012180001002860286820F400602860292084F8EC
:101228003D00202084F83E00002020646285628D05
:10123800E36201906B690193AB69019384F83C0008
:10124800019B6B68616243F4E06322856B6003B0C5
:1012580030BD0120FBE70220F9E737B5044690F8D6
:101268003D0000F02800282830D100292CD0002A81
:101278002AD094F83C00012828D025682868C0079F
:101288005EBF286840F001002860286820F40060EC
:1012980028602A2084F83D00202084F83E000020A1
:1012A80020646285628DE36201906B690193AB698A
:1012B800019384F83C00019B6B68616243F4E0632E
:1012C80022856B6003B030BD0120FBE70220F9E7FF
:1012D80090F83D30202B14D1282380F83D30036846
:1012E8001A68D2075EBF1A6842F001021A601A68CB
:1012F80042F480621A605A6842F440725A600020D0
:1013080070470220704770477047704710B590F8D3
:101318003D10026D0346C9B282B9C26C0168012A48
:10132800826C05D1D2B20A61026D02321A6510BD13
:10133800C2F307220A611A6D0132F7E7026D012A2A
:1013480003D1826C0168D2B2F4E7026D022AEED1B1
:10135800222905D101680A6842F480720A60EAE726
:10136800428D92B272B121290AD1426A016812F8FB
:10137800010B08615A625A8D013A92B25A85D6E732
:101388005B8DD4E7428D92B2002AD0D12129CED1EB
:1013980001684C6824F4E0644C600C6844F4007400
:1013A8000C602021026380F83D1080F83E20FFF792
:1013B800ACFFBCE77047704773B50023806B01939F
:1013C80090F83D20344BD4B21B6846F2A812B3FB08
:1013D800F2F32322534301930368019A02BB026C80
:1013E80042F020020264D0E90D1201BB002A32D17A
:1013F800196821F48061196042851A6822F0010297
:101408001A6090F83D20602A2CD1202380F83D30C6
:10141800002380F83E300364FFF7CDFF02B070BDB3
:10142800019A013A01921A689205D6D4DBE70025A1
:10143800CD6332B91D6825F480651D6042850A6553
:10144800DBE71E68D56326F480661E6045850D655A
:1014580000211165D1E71D68D16325F480651D6001
:101468004185F5E704F02802282A0ED1196841F0D1
:1014780001011960196841F4806119600023036350
:1014880080F83D20FFF712FBC8E7202380F83D30A5
:10149800002380F83E30F5E73400002010B590F8BE
:1014A8003D2090F83E30102BD9B204460368D2B2E2
:1014B80001D040290CD1222A0AD11A6822F40062EC
:1014C8001A6022685268120549D50022226307E093
:1014D80002F0280128293DD10022226384F83D101A
:1014E8005A6812F400625BD05A68606B22F400629A
:1014F8005A6090F83530012B3D4B37D00365FFF724
:101508005BFC50B12268606B136823F00103136021
:10151800202384F83D30036D9847236C19071FBFBB
:101528002268536823F4E063536094F83D30226CDA
:101538005207DBB20DD5282B0BD12E4BE3622022AC
:1015480000232363204684F83D2084F83E30FFF7CB
:1015580082FA10BD59680805B7D4602AB5D0202290
:1015680084F83D20002284F83E20AEE7A06B036596
:10157800FFF722FC0028D0D023685A69510605D508
:101588001A69636A1A70636A013363622268A06B1E
:10159800136823F001031360202384F83D30BAE771
:1015A80094F83D10602915D1202184F83D1022645B
:1015B8005A69520605D51A69636A1A70636A013353
:1015C80063622268136823F0010313602046FFF763
:1015D800F2FEA2E75A69500605D51A69636A1A70BD
:1015E800636A013363622046FFF760FA95E700BF3C
:1015F800C11300080000FFFFF0B5036804465A68ED
:10160800C66A90F83E0094F83D1010288FB0C5B215
:10161800C9B202D0402D40F0D3829F69586910F0BA
:10162800010F07D1B6F52A0F02D0B6F12A4F51D1D2
:101638000FB0F0BD96054DD5E26AB2F52A0F0CD170
:101648000122E26294F83E20402A11D1226D52B95B
:10165800626C02F0FE021A61EAE7E26AB2F12A4F0E
:10166800F0D10822EDE7626C42F00102D2B2F2E753
:101678002269B2F5804F1AD194F83D20212A626C74
:1016880011D102F0FE021A61626B0AB1D26B2AB95B
:10169800A26B002ACCD0D26B002AC9D05A6842F477
:1016A80000625A60C4E742F00102D2B2EBE7226D51
:1016B80032B9626CD21102F0060242F0F002CAE7B7
:1016C800226D012AB4D1626CD21102F0060242F0F6
:1016D800F102C0E7060703D5960501D5626CE4E779
:1016E800860740F1EC80960540F1E98094F83E10B9
:1016F800E26A256B94F83D002228C9B240F0D780F1
:10170800206D40B9402906D101905A6901929B6920
:101718000193019B8CE7216D89B92069B0F5404F91
:101728000DD102915A6902929A690292029A1A6834
:1017380042F480721A60236D0133236578E7618D66
:1017480089B251B903915A6903929A690392039A2B
:101758001A6842F400721A6019E0618D89B2012991
:1017680049D112F5803F1BD11A6822F480621A60B1
:101778005A6812F400620CD01A6822F480621A6067
:10178800002204925A6904929B690493049B0023E3
:10179800D3E705925A6905929A690592059AD7E79F
:1017A800082A1CD0202A1AD0122D0DD1012A16D1B0
:1017B8001A6822F480621A60002206925A69069218
:1017C8009B690693069BE2E7102AF1D8844941FAFF
:1017D80002F2D207ECD41A6842F48062EBE71A6886
:1017E80022F480621A60002207925A6907929A6965
:1017F8000792079AACE7618D89B2022934D1102A81
:1018080003D87849D140CF0712D4196821F48061F0
:101818001960196841F40061196059680E0513D4FC
:10182800002208925A6908929B690893089BAEE7C0
:10183800196841F48061196059680D05F0D5072AC7
:1018480007D8012AECD10AE0202AF8D912F5803FFE
:10185800F8E7A2F10801644ACA40D007E0D55A68FF
:1018680042F480525A60DBE7196841F480611960DC
:101878005968090505D5202A16D8072A09D8012A42
:101888000DD0002209925A6909929B690993099B14
:101898007DE7A2F10801544ACA40D207F1D55A6837
:1018A80042F480525A60ECE712F5803FE8E70022E4
:1018B8000A925A690A929B690A930A9BB8E67F07BB
:1018C80040F194805E6836053FF5B2AE070600F039
:1018D80004063ED550053CD5002E3DD194F83D2058
:1018E800258D94F83E10E06AD2B2C9B2C5B9212A52
:1018F80018D1082858D0202856D010F5803F53D04A
:101908005A6822F4E0625A6011232363002384F8A2
:101918003E30202384F83D302046FFF7F4FC87E66C
:10192800212A05D040297FF483AE222A7FF480AE95
:10193800628D92B21AB95A6822F48062B1E694F8BC
:101948003E20402A16D120460FB0BDE8F040FFF7F0
:10195800DDBC002E3FF46CAE97057FF569AE2129FA
:1019680039D1E16A94F83D20212A7FF461AE628D75
:1019780092B24AB1626A12F8011B19616262638D00
:10198800013B9BB2638553E608290DD020290BD073
:1019980011F5803F08D0596821F4E061596011239E
:1019A800236384F83E20B4E75A6822F4E0625A6060
:1019B8001A6842F400721A6000232022236384F814
:1019C8003D2094F83E2084F83E30402A2046A4D199
:1019D800FFF79BFC2CE6402D7FF42AAEB3E700BF4F
:1019E800EBFFFEFF140001000101000159680E051C
:1019F8003FF51EAE450600F0040176D5500574D5B6
:101A0800002975D194F83D20222A7FF411AE628D09
:101A180092B2032A14D91A69636A1A70636A013385
:101A28006362638D013B9BB26385638D9BB2032B1D
:101A38007FF4FEAD2268536823F480635360F7E5B2
:101A4800E06A02283FF477AF012A3FF674AF754A7F
:101A58000B91126846F2A811B2FBF1F202EB820276
:101A68000B920B9A013A0B920B99D1B9226C42F066
:101A7800200222645A6822F4E0625A601A69636A92
:101A88001A70636A01336362638D013B9BB263859D
:101A9800202384F83D30204684F83E10FFF706F8EE
:101AA800C6E51A6812F40072DBD1196821F4806166
:101AB8001960596821F4E06159601969636A1970FD
:101AC800636A01336362638D013B9BB263852023A4
:101AD80084F83D3094F83E3084F83E20402B69D19C
:101AE80022632046FFF766FCA2E500293FF4A0AD7B
:101AF80092057FF59DADE26A608D616A80B2042827
:101B080009D15A6822F480625A601B690B70636AB3
:101B18000133636233E7608D80B203280CD15868C3
:101B2800042A20F480605860EFD0022AEDD01A68A9
:101B380022F480621A60E8E7608D80B20228E4D15E
:101B4800042A33D007D8012A07D0022A2ED01A68CF
:101B580042F4007204E0102AF9D11A6822F4806273
:101B68001A601B690B70626A531C6362638D013BC8
:101B78009BB2638523681B695370636A22680133CB
:101B88006362638D013B9BB26385536823F44073A2
:101B98005360202384F83D3094F83E30402B4FF0BA
:101BA800000384F83E3005D123639AE71A6842F4AB
:101BB8008062D5E7122323632046FFF7A5FB37E5AC
:101BC800206C10B35869002587072DD596052BD5AD
:101BD800226C02B19D6994F83D2002F02802282A5F
:101BE80016D15A6822F480625A602F0685F00401E3
:101BF8004FF0000354BFA289228B84F83C30C1F314
:101C080080012046FEF7F3FE12E59D695869DBE77F
:101C180000220C9259690C919B690C930C9B84F8D7
:101C28003C2005E534000020C60640F1C280950539
:101C380040F1BF8094F83D505A6822F4E0625A603F
:101C480000220D925A690D921A6842F001021A6038
:101C58000D9A1A6822F480621A605A681005EDB26B
:101C680020D505F0F702222A3DD1A06B0268526800
:101C780092B26285628D92B21AB1226C42F004026D
:101C880022645A6822F400625A60FFF7A7F8012814
:101C980008D0A06B814B0365FFF78EF810B1A06BDD
:101CA800036D9847638D9BB2002B3CD1236C002BAE
:101CB80056D12A2D74D12363282384F83D30204639
:101CC800FEF7DEFE94F83D30282B5AD1744BE362C0
:101CD800202200232363204684F83D2084F83E30E8
:101CE800FEF7B9FEA4E4606B0268526892B262859E
:101CF800628D92B21AB1226C42F0040222645A68D0
:101D080022F400625A60FFF769F8012808D0606B76
:101D1800624B0365FFF750F810B1606B036D98478D
:101D2800638D9BB2D3B123685A6951071ED42368C7
:101D38005A69520609D51A69636A1A70636A0133C7
:101D48006362638D013B9BB26385638D9BB2002BFD
:101D5800ACD0236C43F004032364A7E7236CFBB1E6
:101D680020460FB0BDE8F040FFF798BB1A69636AD8
:101D78001A70636A01336362638D013B9BB26385AA
:101D8800D5E7236B222B7FF453AC00232022236357
:101D980084F83D2084F83E302046FEF771FE47E483
:101DA80094F83D30282B91D0236B222BEDD0222D97
:101DB800E9E701F0F701212900F0040535D107060C
:101DC80027D5560525D53DBB94F83D00628D92B2C6
:101DD800C0B2002A3FF42CAC626A12F8015B1D61A4
:101DE8006262628D013A92B26285628D92B2002A75
:101DF8007FF41EAC29287FF41BAC5A6822F4806259
:101E08005A6028232163204684F83D30FEF74AFEB5
:101E18000EE4002D3FF40CAC95057FF509AC628DFE
:101E280092B2002A3FF404ACA4E5400627D5510538
:101E380025D53DBB94F83D20618D89B2D2B20029E9
:101E48003FF4F6AB1969636A1970636A0133636218
:101E5800638D013B9BB26385638D9BB2002B7FF43E
:101E6800E7AB2A2A7FF4E4AB2268536823F4806343
:101E7800536022232363282384F83D308CE7002D08
:101E88003FF4D6AB92057FF5D3AB628D92B2002AB0
:101E98003FF4CEAB1A69636A1A7038E6C1130008BA
:101EA8000000FFFFF8B5036859695E6890F83E20A6
:101EB80011F480750446D2B206D016F480751EBFA0
:101EC8006FF480705861012501F4806001F40067A7
:101ED800890510D5F1050ED56FF4007145F002059E
:101EE800596160B917BB236C2B4323642046BDE8B6
:101EF800F840FFF7D3BA002849D0F1054AD5B4F81D
:101F08002AC094F83D00D4F830E0202A1FFA8CFC4F
:101F1800C0B26FF480615ED1BCF1000F0DD0596181
:101F280045F00405002FDED0F205DCD523686FF4F8
:101F3800006245F008055A61D5E700F0F702212A4A
:101F480004D02828EBD1BEF1210FE8D194F83D2028
:101F5800E16A0829D2B201D020291ED1282A1CD131
:101F6800234AE2625A6822F4E0625A606FF480629F
:101F78005A611A6822F480621A60002320222363BF
:101F8800204684F83D2084F83E30FEF764FD0FB10A
:101F9800F305CBD4002DA6D1F8BD212A17D11449B9
:101FA800E1622263202284F83D20002284F83E204A
:101FB8005A6822F4E0625A606FF480625A611A68C3
:101FC80022F480621A602046FEF76CFDDFE76FF4AA
:101FD80080625A61DBE7102A596145F0040501D097
:101FE800402A9FD11A6842F400721A609AE700BF2B
:101FF8000000FFFF90F83D007047006C7047F0B597
:1020080004468BB060B390F8BD34056803F0FF0256
:102018001BB980F8BC2404F0EDFA032384F8BD341E
:10202800EB6B254613F4807355F8100B08BF23613A
:1020380001F0F8FD0FCD6E460FC60FCD0FC695E81F
:10204800030086E803002546271D97E80E0055F88B
:10205800100B01F031FD064630B1022384F8BD347F
:10206800012528460BB0F0BD0146206801F0E0FDCF
:102078003146D4F804C024264FF0010E0846CAB2EF
:10208800944501F1010121D8002124260A46C8B24D
:10209800844501F1010127D80FCD6E460FC60FCD3B
:1020A8000FC695E8030086E8030097E80E0020684D
:1020B80001F040FE05460028CFD1012384F83800FE
:1020C800206884F8BD3402F0FBF9CAE706FB024336
:1020D800C3E9120083F83DE083F83C20A3F84420CC
:1020E80083F840005865CAE706FB0043C3E9A2220B
:1020F80083F87D2283F87C0283F88022C3F8942237
:10210800C5E710B50446006894F8BC34012B15D017
:10211800012384F8BC34A36A012B06D1A369012BDF
:102128001EBF836B43F48033836301F075FD206821
:1021380002F0B8F9002084F8BC0410BD0220FCE7C6
:1021480010B590F8BC24012A04460BD0012280F86F
:10215800BC2480F83810006802F094F9002084F854
:10216800BC0410BD0220FCE770B501F00F0606EBB9
:10217800C60411F0800F05464FEA84044FF024008E
:102188001FD000FB065004F13C010124294480F8CB
:102198003D40CA604A780E700B7102B10E81022B65
:1021A80004BF00234B7195F8BC34012B12D00123D6
:1021B800286885F8BC3401F086FE002085F8BC0448
:1021C80070BD00FB065004F51F710024294480F8F7
:1021D8007D42DEE70220F3E710B5044601F00F0068
:1021E80000EBC00311F0800F4FEA83034FF0240285
:1021F80016D002FB004203F13C010123214482F87E
:102208003D30087094F8BC34012B12D001232068AB
:1022180084F8BC3401F096FE002084F8BC0410BD9C
:1022280002FB004203F51F710023214482F87D322E
:10223800E7E70220F3E738B501F00F05242404FB93
:10224800050104FB050401F51F71C4F8943200234D
:10225800C4F88C22C4F89C3284F87D3284F87C520D
:1022680003690068012B08BFC4F89022DAB21DB9CF
:1022780001F0BEFE002038BD01F08CFFFAE701F046
:102288000F01242303FB0100D0F89C02704738B5E6
:1022980001F00F05242404FB050104FB05043C316F
:1022A80063650023E3650123E26484F83D3084F824
:1022B8003C5003690068012B08BF2265DAB21DB9DA
:1022C80001F096FE002038BD01F064FFFAE738B54A
:1022D800436801F00F059D4204462CD811F0800F89
:1022E8004FF024001ED000FB054100FB05400123F0
:1022F8003C3180F83D3001238B700D7094F8BC247C
:102308009A421AD0206884F8BC3402F067F82DB9D4
:10231800217C206804F2C44202F022F9002084F8EB
:10232800BC0438BD00FB01431A4603F51F710023A6
:1023380082F87D32DFE70120F3E70220F1E738B5C4
:10234800436801F00F029A4204462AD802EBC203FE
:1023580011F0800F4FEA83034FF0240018D000FBE0
:10236800024003F13C010123214480F83D3000255F
:102378008D700A7094F8BC34012B14D001232068A6
:1023880084F8BC3402F055F884F8BC54284638BDAB
:1023980000FB024003F51F710023214480F87D32C1
:1023A800E5E70120F3E70220F1E701F00F0303EB73
:1023B800C3030A064FEA83034CBF03F13C0103F54C
:1023C8001F710144006801F08FBE00002DE9F04F35
:1023D800066889B00446304602F0AEF8039000283B
:1023E80040F05781206802F079F8002800F0518108
:1023F800D6F808382068C3F30D23C4F8FC3402F07B
:102408006DF8870748BF2268206842BF536903F008
:102418000203536102F062F8C00606F500652CD588
:102428002268936923F010039361D6F82080C8F3DB
:102438004343022B08F00F0740F02E8147F6F07354
:1024480018EA030F14D0242303FB0747C8F30A191B
:10245800D7F88C124A46304601F0A0FFD7F88C32E4
:102468004B44C7F88C32D7F89C324B44C7F89C329F
:102478002268936943F010039361206802F02EF8F4
:10248800010300F11B81206802F028F842030DD5F2
:10249800206802F02FF82746049006F5106B4FF0DD
:1024A800000A049B2068002B40F0CD81206802F0D0
:1024B80015F8002813DA6B6823F001036B6094F8B1
:1024C800F434012B40F06782002184F8F41420468C
:1024D80000F0E3FA2268536903F00043536120686F
:1024E80001F0FCFF01050AD5AB68DA0702D52046E2
:1024F80004F042F92268536903F4006353612068C9
:1025080001F0ECFFC30433D56B68206823F00103A6
:102518006B60102101F0BCFB06F510634FF67F31AC
:1025280062680398824200F23A82EB6943F0011331
:10253800EB61236B002B00F04F82D5F8843043F019
:102548000B03C5F884306B6C43F00B036B64D6F84F
:102558000038217C206823F4FE63C6F8003804F2B2
:10256800C44201F0FDFF2268536903F480535361AC
:10257800206801F0B3FF870416D5206801F0E0FF5A
:10258800206801F095FCE060276800F0FDFC227BE4
:102598000146384601F0D0FA204604F0DCF82268FB
:1025A800536903F400535361206801F097FF000753
:1025B80007D5204604F0CBF82268536903F00803D6
:1025C8005361206801F08AFF010600F1108220683B
:1025D80001F084FFC2020CD5A04606F51269012756
:1025E8006368BB4200F21C822268536903F48013BB
:1025F8005361206801F072FF83022DD5D4F804E0FE
:10260800234606F5326001218E4520D993F8A4C2ED
:102618000268BCF1010F40F01982002A80F216828C
:10262800D4F8FC7402F4803207F00107BA4240F093
:102638000D8283F8A3C2B26942F08002B261726966
:10264800170600F103826B6843F400736B6022681D
:10265800536903F400135361206801F03FFF410000
:1026680007D5204604F0C2F82268536903F0804376
:102678005361206801F032FF42070AD523685D687C
:102688006B0702D5204604F0B5F8226853682B433F
:10269800536009B0BDE8F08F062B7FF4E9AE08223D
:1026A80004F2C441304601F079FE242303FB0747B6
:1026B800C8F30A18D7F89C324344D7E6206801F0DB
:1026C80011FF06F530680490A2460027049B206895
:1026D800002B3FF4D8AE049BDB0762D55FFA87FB7B
:1026E800594601F00FFF10F0010F81461BD02068FA
:1026F80021690123C8F8083000F5306303EB47135C
:102708000129D0F840C09A6878D1110707D5B04997
:102718008C4508D9100406D54FF4004202E0910612
:1027280048D520229A6019F0080F0FD00823C8F85E
:1027380008302368A649186C03F5306303EB471388
:1027480088429A686ED8204603F0EAFF19F0100F05
:102758001CBF1023C8F8083019F0020F14D0736991
:102768001A0642BF6B6843F480636B609AF87F3245
:10277800012B06D100238AF87F325946204604F0FF
:102788002DF80223C8F8083019F0200F1CBF2023A9
:10279800C8F8083019F4005F1CBF4FF40053C8F89C
:1027A8000830049B5B080137049308F120080AF1FC
:1027B800240A8BE712F0280FB5D185498C4501D939
:1027C8001204A9D41A69DAF89832C2F312029B1AD1
:1027D800CAF89C326FB9D4F894222AB904F2C442D8
:1027E800012101F0BDFE04E0D4F88C221A44C4F89B
:1027F8008C225946204603F099FF94E775498C4589
:1028080006D1110488D49006F3D520229A60F0E707
:10281800002FEED1D4F89432002BEAD104F2C4424E
:102828003946DEE7110444BF4FF400429A6020465F
:1028380003F076FF2169012988D1206804F2C44297
:1028480001F08EFE82E7049BDB0740F19B805FFA74
:102858008AF31946059301F05EFE10F0010F8046D9
:102868001FD06B6B01210AF00F0201FA02F223EA72
:1028780002036B63CBF80810216901290DD1D7E950
:1028880012231344FB64BAF1000F06D1636D23B918
:10289800206804F2C44201F063FE0599204603F063
:1028A8004EFF18F0080F1CBF0823CBF8083018F0AB
:1028B800100F1CBF1023CBF8083018F0400F1CBFB6
:1028C8004023CBF8083018F0020F11D0514630469B
:1028D80001F0DEF997F83F30012B06D10023059966
:1028E80087F83F30204603F07DFF0223CBF80830FD
:1028F8002368069318F0800F44D0FA6D7B6D9A42D6
:1029080040D8A3EB0208BB6C984528BF9846069BA5
:1029180003F5106308F1030803EB4A134FEA98081C
:102928000793079BFA6D99697B6D89B2414527D357
:1029380093420BD8069B0AF00F00D3F834280121E4
:10294800814022EA0102C3F834281BE0A3EB020904
:10295800BB6C059A0698994528BF9946237C009335
:10296800F96C1FFA89F301F001FCFB6C4B44FB6422
:10297800FB6D09F103084B444FEA9808FB65D0E763
:102988009342D7D9049B5B080AF1010A04932437C0
:102998000BF1200B85E5204603F006FF9AE59960C8
:1029A8001A6822F400121A60C3F80812D3F8002239
:1029B80022F40012C3F80022D3F8002242F0006289
:1029C800C3F80022039A013203922033A8E500BF1E
:1029D8000A30544F0A31544F6B6943F4005343F0A3
:1029E8002B036B612B6943F00B032B61AFE5B369D4
:1029F80023F08003B361012704F27F284FF02409F4
:102A08006368BB427FF6E3AD09FB07F318F80330B0
:102A1800012B03D1F9B22046FFF7C7FC0137EFE7D6
:102A280098F86430D9F80020012B09D1002A07DA78
:102A380067F07F0188F86330C9B22046FFF7B5FC1C
:102A4800013708F1240809F12009C9E501312433C7
:102A58002030D9E5036870B5586A120419B90243E1
:102A68009A62002070BD9C6A4E1E00EB1440002440
:102A7800B44205D33F3103EB810302435A60F0E7C8
:102A880004F1400503EB850501346D6800EB154042
:102A9800EEE7036800205962704770472DE9F3415B
:102AA800044640B30368DE0710D423689D075BD44F
:102AB8002368190700F19D8023685A0700F1BD803B
:102AC800A369002B40F0248100202CE08D4B9A68EC
:102AD80002F00C02042A07D09A6802F00C02082AB5
:102AE8000BD15B68590208D5864B1B689A03DCD565
:102AF8006368002BD9D1012015E06368814DB3F5D7
:102B0800803F13D12B6843F480332B60FEF744F8E1
:102B18007C4E054633689B03C7D4FEF73DF8401B3F
:102B28006428F7D9032002B0BDE8F081B3F5A02FDF
:102B380004D12B6843F480232B60E3E72A6822F44E
:102B480080322A602A6822F480222A60002BDDD194
:102B5800FEF722F806462B689F03A6D5FEF71CF859
:102B6800801B6428F7D9DDE7664B9A6812F00C0FD2
:102B780007D09A6802F00C02082A11D15B685D023E
:102B88000ED4604A1368990702D5E368012BB2D1C5
:102B98001368216923F0F80343EAC103136087E748
:102BA800E268594BB2B101221A60FDF7F5FF554DA5
:102BB80006462B689B0707D52B68226923F0F80384
:102BC80043EAC2032B6073E7FDF7E6FF801B022888
:102BD800EFD9A7E71A60FDF7DFFF4A4E05463368CD
:102BE8009F077FF565AFFDF7D7FF401B0228F6D991
:102BF80098E76269444B82B10122C3F8802EFDF741
:102C0800CBFF404E0546736F9B073FF555AFFDF769
:102C1800C3FF401B0228F6D984E7C3F8802EFDF7CE
:102C2800BBFF384E0546736F9F077FF545AFFDF72D
:102C3800B3FF401B0228F6D974E7324B1A6C12F026
:102C4800805228D101921A6C42F080521A641B6C8F
:102C580003F080530193019B01272C4D2B68D80565
:102C68001BD5A368274D012B27D12B6F43F00103F8
:102C78002B67FDF791FF234E054641F28838336FE5
:102C88009A0739D5002F3FF41BAF1E4A136C23F067
:102C98008053136414E70027DFE72B6843F480733D
:102CA8002B60FDF779FF06462B68D905D9D4FDF7C7
:102CB80073FF801B0228F7D934E7052B04D12B6F4B
:102CC80043F004032B67D0E72A6F22F001022A673A
:102CD8002A6F22F004022A67002BCAD1FDF75CFF95
:102CE80041F2883806462B6F9B07CBD5FDF754FF7A
:102CF800801B4045F7D915E7FDF74EFF401B4045BF
:102D0800BDD90FE70038024000004742007000407C
:102D1800374DAA6802F00C02082A3ED0022B354B28
:102D28004FF000021A662BD1FDF736FF06462B68D6
:102D380099011FD4D4E907321343626A43EA821324
:102D4800E26A43EA0263A26A5208013A43EA02438A
:102D58006B60284B264D01221A66FDF71DFF0446BD
:102D68002B689A013FF5B0AEFDF716FF001B02284D
:102D7800F6D9D7E6FDF710FF801B0228D7D9D1E690
:102D8800FDF70AFF04462B689B017FF59DAEFDF712
:102D980003FF001B0228F6D9C4E6012B3FF4ABAEB3
:102DA8006B68E26903F4800191427FF4A4AE216A62
:102DB80003F03F028A427FF49EAE616A47F6C07212
:102DC8001A40B2EB811F7FF496AEA26A520803F450
:102DD8004031013AB1EB024F7FF48DAEE26A03F065
:102DE8007063B3EB026F14BF012000209BE600BFA5
:102DF8000038024000004742134908B58B6803F0C9
:102E08000C03042B1CD0082B1CD14A684B6849685A
:102E180013F4800314BF0D480D48C1F3881118BF7F
:102E2800002302F03F02A1FB0001FDF7B1F9064BB8
:102E38005B68C3F3014301335B00B0FBF3F008BDEB
:102E48000248FCE70248FAE70038024000127A001C
:102E58000024F4002DE9F0410D46044610B9012084
:102E6800BDE8F081434B1A6802F007028A4228D372
:102E780021688F072DD4C80740D43E4B1A6802F04A
:102E88000702AA4265D8226851076BD4130707D5F1
:102E9800394A2169936823F4604343EAC103936084
:102EA800FFF7AAFF344B354A9B68C3F30313D35C7F
:102EB800D840334B1860334B1868FDF723FE0020C9
:102EC800CEE7CAB21A701B6803F007038B42C6D15B
:102ED800CEE7294B11F0040F1EBF9A6842F4E05266
:102EE8009A600E0742BF9A6842F460429A609A68F4
:102EF800A06822F0F00202439A60BCE762681E4BA9
:102F0800012A1CD11B6813F4003FA8D01A4EB368DD
:102F180023F003031343B360FDF73EFE41F2883804
:102F28000746B368626803F00C03B3EB820FA4D0C2
:102F3800FDF732FEC01B4045F3D9032090E7911EF0
:102F480001291B6802D813F0007FDEE713F0020F97
:102F5800DBE7EAB21A701B6803F00703AB427FF4A1
:102F68007EAF90E70449E0688B6823F4E05303439D
:102F78008B608BE7003C024000380240287B000849
:102F88003400002004000020014B1868704700BF7F
:102F980034000020044B054A9B68C3F38223D35CAA
:102FA800034A1068D840704700380240207B000868
:102FB800340000207047704703681A69910710B5FC
:102FC80004460ED5DA6892070BD56FF002021A6133
:102FD800012202779B699B0777D000F044FD00230C
:102FE800237723681A69500710D5DA6851070DD579
:102FF8006FF004021A61022222779B6913F4407F62
:10300800204668D000F02FFD0023237723681A6933
:1030180012070FD5DA6810070CD56FF008021A618D
:1030280004222277DB69990720465AD000F01BFD5D
:103038000023237723681A69D20610D5DA68D006E8
:103048000DD56FF010021A6108222277DB6913F49C
:10305800407F20464BD000F006FD002323772368ED
:103068001A69D10708D5DA68D20705D56FF00102C9
:103078001A61204600F0D4FC23681A69100608D5A6
:10308800DA68110605D56FF080021A61204600F053
:10309800B4F823681A69520608D5DA68500605D5C7
:1030A8006FF040021A612046FFF785FF23681A690E
:1030B800910622D5DA6892061FD56FF020022046C5
:1030C8001A61BDE8104000F097B800F0CAFC20462D
:1030D800FFF770FF83E700F0C4FC2046FFF76AFFA4
:1030E80092E700F0BEFC2046FFF764FFA0E700F07F
:1030F800B8FC2046FFF75EFFAFE710BD264A03681D
:1031080090421BD0B0F1804F18D0A2F57C4290427B
:1031180014D002F58062904210D002F5806290428D
:103128000CD002F57842904208D002F570529042D5
:1031380009D1CA6823F44073134317E04A6823F09F
:1031480070031343F5E7154A9042F2D002F5806206
:103158009042EED0A2F598329042EAD002F5806211
:103168009042E6D002F580629042E2D04A6923F0AC
:103178008003134303608B68C3620B688362064B4A
:10318800984203D003F58063984201D10B69036329
:1031980001234361704700BF000001400044014023
:1031A80010B5044630B390F83D3003F0FF021BB968
:1031B80080F83C2001F0A4FF0223206884F83D3009
:1031C800211DFFF79BFF012384F84630002084F877
:1031D8003E3084F83F3084F8403084F8413084F839
:1031E800423084F8433084F8443084F8453084F819
:1031F8003D3010BD0120FCE770477047026802F1BE
:103208000C0353E8003F23F490730C3242E800317A
:1032180002680029F2D102F1140353E8003F23F0B9
:10322800010302F1140C4CE800310029F3D1036BBF
:10323800012B0BD102F10C0353E8003F23F01003DC
:1032480002F10C0C4CE800310029F3D1202380F85E
:103258003E3000230363704790F83D30202B18D18F
:10326800A9B1A2B190F83C30012B12D0C2840162FE
:103278008284016800232122036480F83C3080F8AE
:103288003D20CA6842F08002CA6018467047012093
:1032980070470220704708B5806B0023C385C3843C
:1032A80001F0BCFF08BD704790F83E30222B07B5EF
:1032B80041D181680268836AB1F5805F3ED10169B6
:1032C80000293ED15268C2F3080223F8022B836218
:1032D800C38D013B9BB2C385002B2CD10268D168FA
:1032E80021F02001D160D16821F48071D160516949
:1032F80021F001015161202280F83E20026B012A51
:10330800026828D1036302F10C0353E8003F23F05D
:10331800100302F10C0C4CE800310029F3D11368BA
:10332800DB0605D501911368019353680193019B4E
:10333800818DFFF7B8FF03B05DF804FB39B9016967
:1033480029B95268D2B21A70836A0133BFE752684A
:1033580002F07F02F7E701F05BFFECE703681A6809
:1033680073B51607D9685D6904460AD1960640F117
:103378008B808D0640F1888002B0BDE87040FFF771
:1033880093BF15F001054BD012F0010F02F00403B2
:1033980063D11BB1236C43F002032364930749D51F
:1033A800236C43F00403236412F0080F03D0236C4A
:1033B80043F008032364236C002B5FD0920604D5E6
:1033C8008B0602D52046FFF76FFF26687369226CCB
:1033D80003F0400302F0080253EA020520464FD0EA
:1033E800FFF70CFF73695E0645D5226802F11403E6
:1033F80053E8003F23F04003143242E8003100292B
:10340800F3D1A06B002836D0884B0365FDF7D4FCB8
:10341800002833D0A06B036D02B0BDE87040184798
:1034280011F4907F30D012F0010F02F0040307D19D
:1034380090070DD41007BED501F020032B43B5E744
:10344800CE050FD4002BF3D19607F3D5002DA7D1C5
:103458001507B0D511F0200FA8E7C80502D4002B36
:1034680098D1F1E7236C560743F001032364EBD5A9
:10347800002DDDD08EE7204601F0D0FE02B070BDF1
:1034880001F0CCFE2564F9E7206B012840F091801B
:10349800D50640F18E80C80640F18B80002201924B
:1034A8001A6801925A680192019A5A6952064CD5D3
:1034B800A16B0A68526892B2002ADFD0A08D9042B0
:1034C800DCD9E285CA69B2F5807F36D003F10C02F7
:1034D80052E8002F22F4807203F10C0040E800212A
:1034E8000029F3D103F1140252E8002F22F001025F
:1034F80003F1140040E800210029F3D103F114027C
:1035080052E8002F22F0400203F1140040E80021A5
:103518000029F3D1202284F83E20216303F10C0214
:1035280052E8002F22F0100203F10C0040E80021BD
:103538000029F3D1A06BFDF701FCE38DA18DC91A19
:1035480089B22046FFF7AFFE98E7E28DE08DA18DA6
:1035580080B292B2002891D0891A89B200298DD000
:1035680003F10C0252E8002F22F4907203F10C05CB
:1035780045E800200028F3D103F1140252E8002F97
:1035880022F0010203F1140545E800200028F3D1D8
:10359800202284F83E20206303F10C0252E8002F19
:1035A80022F0100203F10C0545E800200028F3D1B1
:1035B800C7E7160628D50D0626D594F83D20212AFA
:1035C8007FF45CAFA168226AB1F5805F17D12169E9
:1035D800A9B932F8021BC1F3080159602262E28CD2
:1035E800013A92B2E284002A7FF448AFDA6822F006
:1035F8008002DA60DA6842F04002DA603EE7511C85
:10360800216212785A60EAE750067FF537AF4A061A
:103618007FF534AFDA6822F04002DA60202384F8BC
:103628003D30204601F0F7FD28E700BF9F32000833
:1036380090F83C30012B11D00268242380F83D30EB
:10364800D36823F00C0343F00803D360202380F8E9
:103658003D30002380F83C30184670470220704700
:1036680090F83C30012B11D00268242380F83D30BB
:10367800D36823F00C0343F00403D360202380F8BD
:103688003D30002380F83C301846704702207047D0
:1036980090F83D2090F83E0010437047C285002303
:1036A80082852222036480F83E20026980F83C303B
:1036B800816203681AB1DA6842F48072DA605A6982
:1036C80042F001025A61DA6842F02002DA60002012
:1036D800704770B490F83E60202E0DD149B142B1C8
:1036E80090F83C40012C07D00024046370BCFFF71D
:1036F800D5BF012070BC70470220FBE7836810B576
:1037080004462BB10322014698470023C4E902333B
:1037180010BD0000294A9042034635D0B0F1804FD1
:1037280048D0A2F57C42904230D002F580629042A7
:1037380042D002F5806290422AD002F5806290421F
:1037480034D002F58062904224D002F57042904253
:103758002ED002F5705290421ED002F5806290423F
:103768001CD002F5806290421AD04FF6FF70144ABE
:10377800934217D002F58062934215D002F5806219
:10378800934208BF0D2070470020F0E702207047E1
:1037980004207047062070470820704709207047AA
:1037A8000A2070470B2070470C207047052070478F
:1037B8000720704701207047032070470000014030
:1037C80000180040014670B5044651F8100FFFF785
:1037D800A1FF0546084601F03BFB094A002342F8D1
:1037E800253004F16006E36004F1B005B54204D069
:1037F800103D2846FCF7A5FDF8E7204670BD00BF40
:103808001C030020F8B504460846FFF783FF4FF66F
:10381800FF73984200D1FEE7236903B1FEE71C4D10
:10382800A36404F10C0245F8202004F110060E22CE
:10383800C4E90C33C4E90E33C4E91033C4E91623D0
:10384800216184F82C3084F84C3084F84D30E460E1
:10385800304601F0FDF904F1600504F1B00728468F
:103868001035FFF74BFFBD42F9D100234FF6FF7229
:10387800C4E90033C4E90632C4E90833A3606361CC
:103888008023A3623046BDE8F840FFF789BC00BF3B
:103898001C03002010B5074C206810B10430FFF756
:1038A8008BFB606A20B1BDE810400430FFF784BB91
:1038B80010BD00BF1C030020034B186810B1043072
:1038C800FFF77ABB704700BF1C030020034B586802
:1038D80010B10430FFF770BB704700BF1C03002015
:1038E800034B986810B10430FFF766BB704700BF00
:1038F8001C030020034BD86810B10430FFF75CBBF1
:10390800704700BF1C030020034B186910B1043036
:10391800FFF752BB704700BF1C030020034B5869D8
:1039280010B10430FFF748BB704700BF1C030020EC
:10393800034B986910B10430FFF73EBB704700BFD6
:103948001C03002010B5074CE06910B10430FFF7E4
:1039580033FB206B20B1BDE810400430FFF72CBBCF
:1039680010BD00BF1C030020034BD86910B1043000
:10397800FFF722BB704700BF1C030020034B186AE7
:1039880010B10430FFF718BB704700BF1C030020BC
:10399800034B986A10B10430FFF70EBB704700BFA5
:1039A8001C030020034BD86A10B10430FFF704BB96
:1039B800704700BF1C030020034B586B10B1043044
:1039C800FFF7FABA704700BF1C030020F8B5044699
:1039D8000E4600F1600500F1B00728461035FCF7E7
:1039E8004EFEBD42F9D10023204623613146FFF740
:1039F80009FF2046F8BD826810B50AB904F00EF830
:103A0800BDE81040C368184708B500B9FEE701F0E3
:103A18001DF90068836E13B16030FFF7ECFF08BD35
:103A2800FFF7F2BF10B500B9FEE7037F013B072B94
:103A380010D8DFE803F004140F100F0F0F12012441
:103A480001F004F90068063400EB041083680BB138
:103A5800FFF7D1FF10BD0324F2E70424F0E70224A6
:103A6800EEE7FFF7DFBFFFF7DDBF000082B00023FE
:103A7800104901930246019B01330193019B8B423C
:103A880015D81369002BF6DA002301931369094945
:103A980043F001031361019B01330193019B8B42A6
:103AA80005D8106910F00100F5D102B07047032065
:103AB800FBE700BF400D030084B038B505AD85E8CD
:103AC8000E000A9B012B044625D1836B23F4803317
:103AD8008363C36823F4840323F04003C360C3688B
:103AE80023F44013C360119B012B02BFC36843F446
:103AF8008013C360FFF7BAFF089B012B07D1A368A7
:103B080043F00603A360A36843F02003A360BDE865
:103B1800384004B07047C36843F04003C360FFF700
:103B2800A5FF0E9B23B9A36B43F48033A363E3E79C
:103B3800A36B23F48033F9E7022A4AD1274B284A9A
:103B48000B44934239D9274B274A0B44934236D921
:103B5800264AA1F57403A3F51053934231D9244A98
:103B6800A1F18373A3F5E74393422CD3214B224A57
:103B78000B44934229D9214B214A0B44934226D323
:103B8800204B214A0B44934223D3204AA1F1B77317
:103B9800A3F5585393421ED31D4B1E4A0B44934220
:103BA8002CBF06230723C26822F47052C260C26881
:103BB80042EA8323C360002070470F23F3E70E23F4
:103BC800F1E70D23EFE70C23EDE70B23EBE70A23DF
:103BD800E9E70923E7E70823E5E700BF405327FFA4
:103BE800FF340C00401E1BFF3F420F007F4F1200A6
:103BF80020D6130060B6E5FE5FE3160000D3CEFEC4
:103C080040771B00C05BB3FEC091210020753800CF
:103C1800E05459FEE09C4100836843F0010383604F
:103C280000207047836823F00103836000207047F9
:103C380038B5C368012923F0C04305460C46C36064
:103C480014D1C36843F00053C36000240120FCF77B
:103C5800A9FF6B69D90704F1010402D4322CF5D10C
:103C68003224A4F132035842584138BD71B9C368AF
:103C780043F08043C3600120FCF794FF6B69DA07C7
:103C880004F10104EDD5322CF5D1E9E70120ECE788
:103C980082B00246002310480193019B013301932F
:103CA800019B834215D81369002BF6DA890141F08C
:103CB80020010023019311610749019B01330193FE
:103CC800019B8B4205D8106910F02000F5D102B095
:103CD80070470320FBE700BF400D030082B00023BC
:103CE8000F4901930246019B01330193019B8B42CB
:103CF80013D81369002BF6DA00230193084910231F
:103D08001361019B01330193019B8B4205D8106914
:103D180010F01000F5D102B070470320FBE700BF98
:103D2800400D0300D0F800381943C0F800180020EF
:103D38007047000084B02DE9F843044609A880E8DC
:103D48000E00139E00230F46194603F1400204EBB0
:103D5800820201330F2B5160F7D104F50068002E61
:103D680073D1D8F8043043F00203C8F80430A36BC9
:103D780043F40013A363A36B23F40023A363A36B8F
:103D880023F48023A3630023C4F8003ED4F800384A
:103D9800C4F800380E9B012B61D10B9900295CD126
:103DA8002046FFF7BFFF10212046FFF771FF0546A9
:103DB8002046FFF793FF2843C0B200230038C8F815
:103DC800103018BF0120C8F8143004F51062C8F884
:103DD8001C3019464FF090454FF0006C4FF67F3E6F
:103DE800BB423ED1002204F5306311464FF09045A6
:103DF8004FF0006C4FF67F3EBA4244D1D8F81030ED
:103E080023F48073C8F810300023A3616FF0804357
:103E180063610C9B1BB9A36943F01003A361A269FA
:103E2800224B1343A3610F9B1BB1A36943F0080303
:103E3800A361012E01BFA36943F0804343F004034B
:103E4800A361BDE8F84304B07047A36B23F40013E3
:103E5800A363A36B43F4002394E71946A0E7032167
:103E68009EE7D2F80090B9F1000F0ADA3BB9C2F820
:103E780000C011610133C2F808E02032B0E71560D4
:103E8800F7E71160F5E7D3F80090B9F1000F0ADA07
:103E98003AB9C3F800C019610132C3F808E0203309
:103EA800AAE71D60F7E71960F5E700BF00383C8016
:103EB800D0F8083813F0060004D013F0020F14BF2E
:103EC80002200F20704730B50C78012204F00F054E
:103ED800AA404D78012D00F5006300EB441019D17C
:103EE800DD692A43DA61D0F800391A0410D4CA68A7
:103EF800D0F80059C2F30A030A792B4343EA8243F4
:103F080043EA845343F0805343F40043C0F8003934
:103F1800002030BDDC6944EA0242DA61D0F8003B97
:103F28001B04F5D4CB68D0F8002BC3F30A03134362
:103F38000A7943EA824343F0805343F40043C0F8CC
:103F4800003BE5E710B50A784978012900EB4213F0
:103F580000F5006002F00F0222D1D3F80019002901
:103F68000BDAD3F8001941F00061C3F80019D3F84F
:103F7800001941F08041C3F80019C46B012101FA0E
:103F880002F224EA0204C463C16921EA0202C2619E
:103F9800D3F80019144A0A40C3F80029002010BDBC
:103FA800D3F8001B00290BDAD3F8001B41F000619D
:103FB800C3F8001BD3F8001B41F08041C3F8001B75
:103FC800C46B4FF4803101FA02F224EA0204C4639C
:103FD800C16921EA0202C261D3F8001B034A0A4000
:103FE800C3F8002BDAE700BF007833EC0078F3EF72
:103FF8004B78DFF8F0C0F0B50E788D69384F012B9B
:1040080000EB461446D104F51063BDB91D693D4067
:104018001D611D6945F400251D611D6905EA0C0532
:10402800012A1D6123D14A6902B15A61D4F80039C5
:1040380043F00443C4F800390020F0BDD3F810E081
:104048000EEA0C0CC3F810C0D3F810C00CEA07072E
:104058001F61CF68AF421D6938BF8F6145F40025E5
:104068001D618D691F69C5F312053D43D8E7D4F872
:10407800003943F00443C4F800398B69002BDBD0C6
:10408800D0F8342806F00F060123B3401343C0F8D4
:104098003438D1E7D4F8100B00EA0C00C4F8100B40
:1040A800D4F8100B384004F530631861C86805B1BE
:1040B80088611D69C86145F400251D611D69C0F34B
:1040C80012002843012A186102D10A6902B15A6113
:1040D800D4F8003B43F00443C4F8003BACE700BF0E
:1040E800FFFF07E00000F8FF82B000234A78019341
:1040F8000B78012A4FEA43131ED100F51060C1184E
:10410800C258002A02DB002002B07047C25842F0B1
:104118000062C250C25842F08042C25042F210724D
:10412800019B01330193019B934201D90120EBE7E5
:104138000B68002BF4DBE6E700F53060C118C258C5
:10414800002AE0DAC25842F00062C250C25842F077
:104158008042C25042F21072019B01330193019BCD
:104168009342E3D80B68002BF6DBCCE710B59DF83B
:10417800084044B9033301329B0800EB023001EBDD
:1041880083038B4201D1002010BD51F8042B02603B
:10419800F7E700002DE9F74391F801C08B690F7923
:1041A800DFF8ECE1DFF8EC8116460A78BCF1010F84
:1041B80000EB421440F0A28004F51065CBB9D5F8A5
:1041C80010C00CEA0E0CC5F810C0D5F810C04CF49D
:1041D800002CC5F810C0D5F810C0012E0CEA080C48
:1041E800C5F810C054D14B6903B16B61012F2DD1B3
:1041F80040E0D5F8109009EA0808C5F81080D5F80D
:10420800108008EA0E0EC5F810E0D1F80CE0D5F8D9
:1042180010900EEB030808F1FF38B8FBFEF8DFF842
:1042280078E10EEAC84E4EEA090EC5F810E0D5F856
:104238001080C3F3120E4EEA080E012FC5F810E0E5
:104248000BD0012E30D14B6903B16B61D4F8003922
:1042580043F00443C4F8003922E02F6927F0C0472F
:104268002F612F69012E47F000572F612DD14B691F
:1042780003B16B61D0F8083813F4807FD4F80039A3
:104288000CBF43F0005343F08053C4F80039DDE716
:10429800D4F80059012F45F00445C4F800591AD044
:1042A800002003B0BDE8F083D4F8003943F004439C
:1042B800C4F80039D0F8343802F00F020CFA02FCC6
:1042C8004CEA0303C0F83438EAE7D4F8005945F05B
:1042D8000445C4F80059D0F8085815F4807FD4F87C
:1042E80000590CBF45F0005545F08055C4F80059F9
:1042F800009609699BB2FFF739FFD1E7D4F8105B44
:1043080005EA0805C4F8105BD4F8105B05EA0E0549
:1043180004F530621561CD681BBB1369C5F312053E
:104328001D431561136943F400231361012E02D163
:104338000B6903B15361012F0CD1D0F8083813F47D
:10434800807FD4F8003B0CBF43F0005343F0805308
:10435800C4F8003BD4F8003B43F00443C4F8003BE6
:104368009EE72B44DFF830C0D2F810E0013BB3FBE6
:10437800F5F39BB25D430CEAC34343EA0E03CD61F8
:1043880013611369C5F312051D431561CEE700BF1C
:10439800FFFF07E00000F8FF0000F81F034670B5B4
:1043A8000020940803F5805502F00302A04210D3C0
:1043B80001EB840062B103F580531C680023D90027
:1043C80024FA01F1C154013399B28A42F7D1104459
:1043D80070BD2E6841F820600130E7E74A780B7815
:1043E800012A00EB431012D1D0F80029002A06DB7D
:1043F8002BB1D0F8003923F08043C0F80039D0F849
:10440800003943F40013C0F8003900207047D0F891
:10441800002B002A06DB2BB1D0F8003B23F08043A9
:10442800C0F8003BD0F8003B43F40013C0F8003B51
:10443800EBE70B784A7800EB43100B79012AA3F1DC
:104448000203DBB20FD1D0F80029012B22F40012AD
:10445800C0F8002905D8D0F8003943F08053C0F8D7
:10446800003900207047D0F8002B22F40012012BED
:10447800C0F8002B9EBFD0F8003B43F08053C0F833
:10448800003BEEE7D0F8003823F4FE63C0F80038AC
:10449800D0F80038090101F4FE611943C0F800188A
:1044A80000207047D0F8003E23F00303C0F8003E18
:1044B800D0F8043823F00203C0F80438002070470D
:1044C800D0F8003E23F00303C0F8003ED0F80438CB
:1044D80043F00203C0F8043800207047426980693D
:1044E80010407047D0F8183800F50060C0691840CF
:1044F800000C7047D0F8183800F50060C069184003
:1045080080B2704700EB411100F50060D1F8082B2C
:10451800406910407047D0F81028D0F8343800EBC4
:10452800411001F00F01CB4000F51060DB018068FD
:10453800DBB2134318407047406900F00100704730
:10454800D0F8003923F4FF6323F00703C0F80039DB
:10455800D0F8043843F48073C0F80438002070475A
:1045680030B5056C104CA54200F5306303D9D0F87E
:10457800004B002C16DB00241C611C6944F4002449
:104588001C611C6944F018041C611C69012944F071
:10459800C0441C6101BF5A61D0F8003B43F080233E
:1045A800C0F8003B002030BD0A30544F02F002BF73
:1045B80002F008BF8AB0002308287CD8DFE800F0A2
:1045C8000513202D3A4754616E0001933B4B3C483C
:1045D8001A6B42F001021A631B6B03F0010301938B
:1045E800019B0AB070470293344B36481A6B42F06D
:1045F80002021A631B6B03F002030293029BF0E7AB
:1046080003932E4B30481A6B42F004021A631B6B5B
:1046180003F004030393039BE3E70493274B2B481E
:104628001A6B42F008021A631B6B03F00803049329
:10463800049BD6E70593214B25481A6B42F01002DC
:104648001A631B6B03F010030593059BC9E70693D8
:104658001A4B20481A6B42F020021A631B6B03F0B6
:1046680020030693069BBCE70793144B1A481A6B62
:1046780042F040021A631B6B03F040030793079B49
:10468800AFE708930D4B15481A6B42F080021A6386
:104698001B6B03F080030893089BA2E70993074B61
:1046A8000F481A6B42F480721A631B6B03F4807311
:1046B8000993099B95E7002093E700BF0038024063
:1046C800000002400004024000080240000C0240C2
:1046D800001002400014024000180240001C024072
:1046E8000020024008B5074900F078FAC0F3C4304A
:1046F800012802D0022802D0FEE7002008BD1020C1
:10470800FCE700BF248000080268094B9A420DD1DB
:1047180003F5E2331A6A42F000521A621A6A22F06A
:1047280000521A621A6C22F000521A64704700BFD5
:104738000074004010B50B4986B0044600F02CFA0E
:10474800019060B12046FFF7CDFF30F0100301461D
:1047580005D101A8FCF7E4FA01A8FCF7D3FA06B0E2
:1047680010BD00BF24800008F8B51449144E074650
:1047780000F012FAFEF7CEFF56F82030044673B95F
:10478800B020FFF713FF0D490546384600F004FA3C
:1047980001462846FFF71AF956F824301D6056F8E6
:1047A80024301C6844B12046FFF70CF82046B0219D
:1047B800BDE8F840FFF7FCBEF8BD00BF0C7D00085F
:1047C8001C030020FCF7E8B9704708B5FCF7D8F9D6
:1047D800FCF783FAFFF7F8FF08BD704784B0114B68
:1047E80000220192196C41F080511964196C01F092
:1047F8008051019101990292596C41F480415964A8
:10480800596C01F480410291029903921A6B42F4A7
:1048180080521A631B6B03F480530393039B04B009
:10482800704700BF003802400C4BD3F8FC20D2017F
:104838005EBFD3F8FC2042F08072C3F8FC20084B1E
:1048480000225A601A6842F001021A6000BF00BFD5
:1048580000BF5868B0FA80F04009704700ED00E0EA
:10486800001000E008B5FFF7B9FFFFF7DDFFFCF720
:104878006DF9FFF7B2FF00F085FD0348FCF732FA47
:10488800BDE8084002F0F6B82C0000200023C0E97B
:104898000033C0E9023370470023012803F1010205
:1048A8000AD11422DBB25343054A181D104481680B
:1048B80029B11A441369184740081346EDE77047B1
:1048C800540300200120FCF78DBA0220FCF78ABAB5
:1048D8000420FCF787BA0820FCF784BA1020FCF7FC
:1048E80081BA38B505242025A8B2FCF77BFA013C2B
:1048F8004FEA4505F8D138BD38B506244FF4806530
:10490800A8B2FCF76FFA013C4FEA4505F8D138BD6B
:10491800344A104608B5062300F8043BFFF7B6FFF3
:10492800072302F118001375FFF7B0FF082302F1FF
:104938002C0082F82830FFF7A9FF092302F1400074
:1049480082F83C30FFF7A2FF0A2302F1540082F8F4
:1049580050301721FFF79AFF02F1680082F86410BF
:10496800FFF794FF02F17C0082F87810FFF78EFFC2
:1049780002F1900082F88C10FFF788FF02F1A40082
:1049880082F8A010FFF782FF02F1B80082F8B41095
:104998002821FFF77BFF02F1CC0082F8C810FFF74F
:1049A80075FF02F1E00082F8DC10FFF76FFF02F1FB
:1049B800F40082F8F010FFF769FF02F5847082F8BE
:1049C8000411FFF763FF02F58E7082F81811FFF7E4
:1049D8005DFFBDE8084002F5987082F82C11FFF7DA
:1049E80055BF00BF5403002038B5054CA4F5A07589
:1049F800143C201DFBF7A5FCAC42F9D138BD00BF23
:104A08009404002030B591FAA1F391FAA1F1B3FA18
:104A180083F3C4685B000325B1FA81F105FA03F357
:104A2800490024EA03038A401A43C26030BD431C8C
:104A380004D00C3151F80C3C5A1C01D100207047AD
:104A4800834201F10C01F5D101207047F8B5471CEC
:104A580006460D4600D1FEE700F00F02414BC0F3B9
:104A6800031053F82240FFF7A5FD94FAA4F3B3FA14
:104A780083F3876803225B0002FA03F394FAA4F233
:104A8800B2FA82F227EA03075200032393403B431A
:104A980005F007018360032903D8DFE801F05F030D
:104AA8002C61FEE7012394FAA4F2B2FA82F20668B6
:104AB8005200032707FA02F226EA020694FAA4F241
:104AC800B2FA82F25200934001393343012903605C
:104AD80005D843682A074CBF2343A3434360C5F363
:104AE8000112012A02D0022A18BF00222146BDE87D
:104AF800F840FFF787BFC5F306227F2A01D10223BA
:104B0800D1E7360716D5230A93FAA3F6B6FA86F63E
:104B1800476A93FAA3F3B6004FF00F0CB3FA83F386
:104B28000CFA06F69B0027EA060602FA03F333435B
:104B38004362E4E794FAA4F3B3FA83F3066A9B00AA
:104B48000F2707FA03F326EA030694FAA4F3B3FA45
:104B580083F39B009A4032430262D0E70023A2E726
:104B68000323A0E7E07A0008431C06D1704783427C
:104B780002D18968FFF76ABF0C310B685A1CF6D15D
:104B8800FEE70B685A1C01D100207047834201D10F
:104B9800486870470C31F4E7431C01D0FFF7F1BFB8
:104BA800002070474B6813B94FF0FF3070478342BD
:104BB80001D1086870470C31F4E708B1FFF7F2BF7C
:104BC8004FF0FF30704703460868421C00D1704719
:104BD800984201D1886870470C31F5E7431C01D031
:104BE800FFF7F1BF704703468B42084604D01BB15C
:104BF80000290CBF18460020704700001049D1F862
:104C0800883043F47003C1F888300E4B1A6842F0BC
:104C180001021A6000229A601A6822F0847222F453
:104C280080321A60084A5A601A6822F480221A6090
:104C38004FF43F02DA604FF000638B60704700BFAB
:104C480000ED00E0003802401030002404387047BE
:104C58000368714A93428EB01CD1002200926F4AB9
:104C6800516C41F001015164526C02F00102009252
:104C7800009A6B4A934240F09D8000230893674B4B
:104C88005A6C42F480325A645B6C03F480330893A4
:104C9800089B4CE0B3F1804F1BD1002201925F4A80
:104CA800116C41F001011164126C02F001020192D1
:104CB800019A5C4A93421BD100230C93574B1A6C00
:104CC80042F080021A641B6C03F080030C930C9B67
:104CD8002DE0554A93421BD1002202924F4A116C93
:104CE80041F002011164126C02F002020292029A6F
:104CF8004E4A93421BD100230D93484B1A6C42F441
:104D080080721A641B6C03F480730D930D9B0EE084
:104D1800474A93420DD100230393404B1A6C42F04B
:104D280004021A641B6C03F004030393039B0EB084
:104D38007047404A93420CD100230493374B1A6CB6
:104D480042F008021A641B6C03F008030493049BE6
:104D5800EDE7394A93420CD1002305932F4B1A6C87
:104D680042F010021A641B6C03F010030593059BB4
:104D7800DDE7324A93420CD100230693274B1A6C85
:104D880042F020021A641B6C03F020030693069B72
:104D9800CDE72B4A93427FF46CAF002307931F4B58
:104DA8005A6C42F002025A645B6C03F002030793E8
:104DB800079BBCE7234A93420CD100230993174B66
:104DC8005A6C42F400325A645B6C03F40033099362
:104DD800099BACE71C4A93420CD100230A930F4B62
:104DE8005A6C42F480225A645B6C03F480230A9361
:104DF8000A9B9CE7154A93427FF45BAF00230B9311
:104E0800064B1A6C42F040021A641B6C03F0400314
:104E18000B930B9B8BE700BF00000140003802405A
:104E280000400140001C00400004004000200040F9
:104E380000080040000C0040001000400014004032
:104E480000040140004401400048014000180040AF
:104E580003683F4A934215D13E494A6C22F0010249
:104E68004A643D4A934243D002F58062934244D05B
:104E780002F5806293420DD102F50632136C23F4D9
:104E8800807306E0B3F1804F05D1324A136C23F0EA
:104E9800010313647047314A934205D102F50D327C
:104EA800136C23F00203F4E72D4A934205D102F56F
:104EB8000C32136C23F00403EBE72A4A934205D122
:104EC80002F50B32136C23F00803E2E7264A9342FB
:104ED80005D102F50A32136C23F01003D9E7234AEF
:104EE80093420FD102F50932136C23F02003D0E767
:104EF800184A136C23F04003CBE7164A136C23F0CF
:104F08008003C6E71A4A934206D102F59A32536CD7
:104F180023F0020353647047164A934205D102F501
:104F28007842536C23F48033F4E7134A934205D153
:104F380002F57442536C23F40033EBE70F4A9342B3
:104F48008FD102F57042536C23F48023E2E700BF4F
:104F580000000140003802400018004000040040F2
:104F680000080040000C0040001000400014004001
:104F78000004014000400140004401400048014055
:104F8800431C3AD0294B98423AD018D8A3F540632D
:104F9800984237D00BD8A3F50063984234D003F574
:104FA8008063984232D0B0F1804F31D0FEE7204B79
:104FB80098422FD003F5806398422DD0F6E71D4B19
:104FC80098422DD00CD8A3F56443984226D003F517
:104FD8006043984226D0A3F56443984220D0E5E781
:104FE800154B98421ED003F5806398421CD0A3F558
:104FF80000639842DAD1182070476FF00D007047AF
:105008002B207047322070471D2070471E207047A4
:105018001C20704736207047372070472D20704776
:105028002C207047192070471A207047001800403C
:10503800001000400004014000440140431C3AD0E5
:105048002B4B98423AD01CD8A3F58053984237D0BE
:105058000BD8A3F50063984234D003F580639842D7
:1050680032D0B0F1804F31D0FEE7224B98422FD09A
:1050780003F5806398422DD0A3F5006398422BD0A6
:10508800F2E71D4B984229D00CD8A3F580439842EB
:1050980026D003F58063984224D0A3F56443984250
:1050A80022D0E1E7154B984220D003F5806398425F
:1050B800DAD11A2070476FF00D0070472C20704726
:1050C800322070471D2070471E2070471C207047F3
:1050D800372070472B2070473620704718207047BC
:1050E8001B2070472E2070472D20704719207047CD
:1050F800001C0040001400400040014000440140F2
:1051080038B5FFF7A5FD04460068FFF739FFD4E975
:105118001212FBF76DFD2068FFF732FFFBF79AFDCF
:1051280022681046FFF78AFF05461046FFF728FF5A
:1051380085420BD02846D4E91212FBF759FD2068A6
:10514800FFF77CFFBDE83840FBF784BD38BD0000A1
:1051580008B5074B90F8612053F82200FEF798FA3B
:1051680000F02200A0F122035842584108BD00BFB8
:105178009404002008B5074B90F8612053F82200EA
:10518800FEF786FA00F02100A0F1210358425841A9
:1051980008BD00BF9404002038B515460446B8B1D0
:1051A800C16490F96000FBF763FDA36EB4F8721058
:1051B80094F8610013FA81F1064BAAB253F8200063
:1051C800FEF74AF894F96000BDE83840FBF742BDA5
:1051D80038BD00BF9404002048B1436D013306D1A7
:1051E80090F86120024B53F82200FEF721BA70476D
:1051F8009404002048B1436D013306D190F8612032
:10520800024B53F82200FEF72BBA70479404002093
:10521800436C04381847836C0438184730B5044683
:1052280050F804391D6815F0010585B012D0002228
:1052380000921A6800925B680093009BFFF788FF52
:1052480040BB012204F15E01204605B0BDE83040B4
:10525800FEF73FBA196811F0020106D001951A68E5
:1052680001925B680193019BE8E71A6812F0040257
:1052780006D002911A6802925B680293029BDDE7EE
:1052880019680907DAD503921A6803925B680393D1
:10529800039BD3E705B030BD08B52520FBF70EFD0D
:1052A800024B1868BDE80840FEF758B8940400207F
:1052B80008B52620FBF702FD034B586818B1BDE876
:1052C8000840FEF74BB808BD9404002008B5272015
:1052D800FBF7F4FC034B986818B1BDE80840FEF7EB
:1052E8003DB808BD9404002008B53420FBF7E6FC5F
:1052F800024BD868BDE80840FEF730B89404002097
:1053080008B53520FBF7DAFC024B1869BDE8084000
:10531800FEF724B89404002008B54720FBF7CEFC1C
:10532800024B5869BDE80840FEF718B894040020FD
:105338000A490346086810B50344EFF3088293420C
:1053480005D9074B0C221A604FF0FF3010BD054AF3
:10535800054C121B9342F4D20B60F7E7380000208B
:10536800901400200000022000040000FEE7000066
:10537800024B16221A604FF0FF307047901400203D
:105388000120704710B594B01422002109A802F03A
:10539800FDF81422002103A802F0F8F800231E4AA1
:1053A8000193116C41F080511164126C02F080522B
:1053B8000192019A194A0293116841F480411160DF
:1053C8001268022402F480420820CDE90E430292BA
:1053D800A823CDE91003029A08940121102207237B
:1053E80008A8CDE90B1212941393FDF757FB00B1EF
:1053F800FEE70F23CDE9033405904FF4A0524FF494
:105408008053052103A8CDE90623FDF723FD00B14C
:10541800FEE714B010BD00BF003802400070004025
:1054280070B505460C46084649B1FAF7A9FE2B683F
:105438000246214628465B68BDE87040184770BDA3
:1054480008B5FFF7EDFF08BD08B50249FFF7E8FF0B
:1054580008BD00BF5481000838B50546FFF7E0FFD6
:1054680004462846FFF7F0FF204438BDFFF7F4BF95
:1054780030B58BB00023012A0C468DF8243098BF34
:105488000A2209A92546B4FBF2F404FB125303F0DF
:10549800FF03092B94BF30333733DBB2AA4201F83C
:1054A800013DEFD9FFF7BCFF0BB030BD10B42AB9EE
:1054B80002685DF8044B1268C9B210475DF8044BE6
:1054C800D2B2FFF7D5BF38B50546FFF7EFFF044660
:1054D8002846FFF7B9FF204438BD10B5044601F04F
:1054E8003DFBE060236820465B699847002808DA9E
:1054F80001F034FBE368C01AA3689842F2D34FF076
:10550800FF3010BDF8B507460D468E180C46B4425C
:1055180001D1601BF8BD3846FFF7DFFF031EF8DB3B
:1055280004F8013BF3E72DE9F041074688461646A3
:105538001D4673B100243846FFF7CFFF031E05DB75
:10554800434503D033550134A542F4D12046BDE884
:10555800F0811C46FAE707B503688DF807105B6809
:1055680001220DF10701984703B05DF804FB000024
:10557800014800F00EB900BF880500202DE9F04170
:10558800DFF83C800E4617461546ADB100F082FBA9
:1055980090B1404600F0FDF8A84228BF28460446CE
:1055A8000028F3D031460648224600F013F92D1B97
:1055B800264400F08FFBE8E7781BBDE8F08100BFC8
:1055C80088050020014800F0ABB900BFC2040020E4
:1055D80010B5044800F0CCF9044600F0B1FB2046B1
:1055E80010BD00BFC20400202DE9F84306460F464F
:1055F800154694B201F0B2FADFF83490F060224612
:105608003946484600F011FA8046A4EB0804A4B2D3
:1056180000F096FB47443CB101F0A0FAF368C01AC9
:10562800B3689842EBD32D1B2846BDE8F88300BF2A
:10563800C20400202DE9F04F85B00646884617467B
:105648001C469DB201F08AFADFF84CA0F0600DF11B
:105658000E092B463A464146CDF80090504600F0D8
:105668002CFA834600F06CFBBDF80E30ED1AADB293
:105678001F44BBF1000F04D0641B204605B0BDE8F1
:10568800F08F002DF9D001F069FAF368C01AB368F9
:105698009842DED3F0E700BFC2040020014800F0C2
:1056A8009EB900BFC204002010B5034C204600F08C
:1056B80080F80028FADC10BD8805002000F0C6BA82
:1056C800044B4FF47A720021C3E90112024A1A60AE
:1056D800704700BFAC0400206081000808B50320B3
:1056E800FBF774FABDE8084001F062BA08B5AFF3F9
:1056F8000080FAF787FDFAF799FD01F03FFAFAE71B
:10570800C0F30312082A10B503460ED8084A002031
:10571800D9B252F8044B8C4203D103F4E063184326
:1057280010BD01303328F4D1FAE73320F8E700BF81
:1057380088800008DFF834D00D480E490E4A00234F
:1057480002E0D458C4500433C4188C42F9D30B4A2D
:105758000B4C002301E013600432A242FBD3FFF795
:105768004DFA01F02BFFFFF7C1FF70470000022040
:10577800000000200C020020948200080C02002087
:1057880098140020FEE70023A0F88230A0F88030AB
:105798007047B0F88230B0F880209BB292B2981A65
:1057A8007F30434203F07F0300F07F0058BF584228
:1057B8007047B0F88030B0F882209BB292B203F103
:1057C8008000801A434203F07F0300F07F0058BF37
:1057D80058427047F8B5B0F88050ADB2C5F18005B1
:1057E800954204460F46B0F8800016460CD914FAC4
:1057F80080F001F009FFB4F8802016FA82F202F076
:105808007F02A4F88020F8BD2A4614FA80F001F03F
:10581800FBFE721B79192046EBE7B0F88020B0F840
:10582800823092B29BB29A422BBFB0F88030B0F867
:105838008230B0F88220C3F1800328BF9B1A9BB244
:105848000B80A0F88430B0F8823010FA83F07047EB
:10585800B0F88220B0F88430134403F07F03A0F836
:10586800823070470023A0F8C230A0F8C030C023AF
:10587800A0F8C4307047B0F8C22082B092B2ADF838
:105888000620B0F8C010BDF8062089B292B2914245
:10589800B0F8C020034692B21FD37F2A08D9B0F8C7
:1058A800C02092B2802A09D1BDF8062092B22AB14E
:1058B800B3F8C00013FA80F002B07047BDF80620B4
:1058C80092B2402A4FF00000F6D9B3F8C02092B245
:1058D800A3F8C420A3F8C000EAE7BDF806104032D8
:1058E80089B28A42E4D30020E6E7B0F8C03011FA62
:1058F80083F39BB2A0F8C030B0F8C020B0F8C43031
:1059080092B29BB29A4224BFC023A0F8C430B0F828
:10591800C0309BB2BF2B84BF0023A0F8C0307047B3
:10592800B0F8C03082B09BB2ADF80430B0F8C430E3
:105938009BB2ADF80630B0F8C220BDF8043092B280
:105948009BB29A4208D8BDF80430B0F8C2209BB286
:1059580092B2981A02B07047BDF80630BDF804102C
:10596800B0F8C22089B292B211FA83F0801AF1E736
:10597800B0F8C02082B092B2ADF80420B0F8C420CC
:1059880092B2ADF80620B0F8C210BDF8062089B270
:1059980092B2914204BF0022A0F8C220B0F8C2100F
:1059A800BDF8042089B292B29142034614D0B0F8EF
:1059B800C22092B2511C89B2A0F8C210B3F8C2102A
:1059C800805CBDF8062089B292B2914202D30022CF
:1059D800A3F8C22002B070474FF0FF30FAE7B0F8E2
:1059E800C03082B09BB2ADF80430B0F8C4309BB27E
:1059F800ADF80630B0F8C220BDF8063092B29BB2BE
:105A08009A4224BF0023A0F8C230B0F8C220BDF8E3
:105A1800043092B29BB29A421BBFB0F8C2309BB21C
:105A28004FF0FF30C05C02B0704737B504460846F7
:105A3800B4F8C0309BB2ADF80430B4F8C4309BB2AF
:105A4800ADF80630B4F8C210BDF8063089B29BB282
:105A5800994224BF0023A4F8C230B4F8C210BDF89C
:105A6800043089B29BB2994294BFBDF80450BDF886
:105A78000650B4F8C230B4F8C210ED1AADB295426F
:105A880028BF15462A4614FA81F101F0BDFDB4F885
:105A9800C23015FA83F39BB2A4F8C230B4F8C2201E
:105AA800BDF8063092B29BB29A4228BF002328461E
:105AB80028BFA4F8C23003B030BDF7B51C46B0F813
:105AC800C030089D9BB2ADF80430B0F8C4309BB22A
